{
  "_format": "hh-sol-artifact-1",
  "contractName": "AadhaarNFT",
  "sourceName": "contracts/solidity.sol",
  "abi": [
    {
      "inputs": [],
      "stateMutability": "nonpayable",
      "type": "constructor"
    },
    {
      "inputs": [
        {
          "internalType": "address",
          "name": "sender",
          "type": "address"
        },
        {
          "internalType": "uint256",
          "name": "tokenId",
          "type": "uint256"
        },
        {
          "internalType": "address",
          "name": "owner",
          "type": "address"
        }
      ],
      "name": "ERC721IncorrectOwner",
      "type": "error"
    },
    {
      "inputs": [
        {
          "internalType": "address",
          "name": "operator",
          "type": "address"
        },
        {
          "internalType": "uint256",
          "name": "tokenId",
          "type": "uint256"
        }
      ],
      "name": "ERC721InsufficientApproval",
      "type": "error"
    },
    {
      "inputs": [
        {
          "internalType": "address",
          "name": "approver",
          "type": "address"
        }
      ],
      "name": "ERC721InvalidApprover",
      "type": "error"
    },
    {
      "inputs": [
        {
          "internalType": "address",
          "name": "operator",
          "type": "address"
        }
      ],
      "name": "ERC721InvalidOperator",
      "type": "error"
    },
    {
      "inputs": [
        {
          "internalType": "address",
          "name": "owner",
          "type": "address"
        }
      ],
      "name": "ERC721InvalidOwner",
      "type": "error"
    },
    {
      "inputs": [
        {
          "internalType": "address",
          "name": "receiver",
          "type": "address"
        }
      ],
      "name": "ERC721InvalidReceiver",
      "type": "error"
    },
    {
      "inputs": [
        {
          "internalType": "address",
          "name": "sender",
          "type": "address"
        }
      ],
      "name": "ERC721InvalidSender",
      "type": "error"
    },
    {
      "inputs": [
        {
          "internalType": "uint256",
          "name": "tokenId",
          "type": "uint256"
        }
      ],
      "name": "ERC721NonexistentToken",
      "type": "error"
    },
    {
      "inputs": [
        {
          "internalType": "address",
          "name": "owner",
          "type": "address"
        }
      ],
      "name": "OwnableInvalidOwner",
      "type": "error"
    },
    {
      "inputs": [
        {
          "internalType": "address",
          "name": "account",
          "type": "address"
        }
      ],
      "name": "OwnableUnauthorizedAccount",
      "type": "error"
    },
    {
      "anonymous": false,
      "inputs": [
        {
          "indexed": false,
          "internalType": "uint256",
          "name": "requestId",
          "type": "uint256"
        },
        {
          "indexed": false,
          "internalType": "uint256",
          "name": "tokenId",
          "type": "uint256"
        }
      ],
      "name": "AadhaarApproved",
      "type": "event"
    },
    {
      "anonymous": false,
      "inputs": [
        {
          "indexed": false,
          "internalType": "uint256",
          "name": "requestId",
          "type": "uint256"
        }
      ],
      "name": "AadhaarRejected",
      "type": "event"
    },
    {
      "anonymous": false,
      "inputs": [
        {
          "indexed": false,
          "internalType": "uint256",
          "name": "requestId",
          "type": "uint256"
        },
        {
          "indexed": true,
          "internalType": "address",
          "name": "user",
          "type": "address"
        }
      ],
      "name": "AadhaarRequested",
      "type": "event"
    },
    {
      "anonymous": false,
      "inputs": [
        {
          "indexed": true,
          "internalType": "address",
          "name": "owner",
          "type": "address"
        },
        {
          "indexed": true,
          "internalType": "address",
          "name": "approved",
          "type": "address"
        },
        {
          "indexed": true,
          "internalType": "uint256",
          "name": "tokenId",
          "type": "uint256"
        }
      ],
      "name": "Approval",
      "type": "event"
    },
    {
      "anonymous": false,
      "inputs": [
        {
          "indexed": true,
          "internalType": "address",
          "name": "owner",
          "type": "address"
        },
        {
          "indexed": true,
          "internalType": "address",
          "name": "operator",
          "type": "address"
        },
        {
          "indexed": false,
          "internalType": "bool",
          "name": "approved",
          "type": "bool"
        }
      ],
      "name": "ApprovalForAll",
      "type": "event"
    },
    {
      "anonymous": false,
      "inputs": [
        {
          "indexed": false,
          "internalType": "uint256",
          "name": "_fromTokenId",
          "type": "uint256"
        },
        {
          "indexed": false,
          "internalType": "uint256",
          "name": "_toTokenId",
          "type": "uint256"
        }
      ],
      "name": "BatchMetadataUpdate",
      "type": "event"
    },
    {
      "anonymous": false,
      "inputs": [
        {
          "indexed": false,
          "internalType": "uint256",
          "name": "_tokenId",
          "type": "uint256"
        }
      ],
      "name": "MetadataUpdate",
      "type": "event"
    },
    {
      "anonymous": false,
      "inputs": [
        {
          "indexed": true,
          "internalType": "address",
          "name": "previousOwner",
          "type": "address"
        },
        {
          "indexed": true,
          "internalType": "address",
          "name": "newOwner",
          "type": "address"
        }
      ],
      "name": "OwnershipTransferred",
      "type": "event"
    },
    {
      "anonymous": false,
      "inputs": [
        {
          "indexed": true,
          "internalType": "address",
          "name": "from",
          "type": "address"
        },
        {
          "indexed": true,
          "internalType": "address",
          "name": "to",
          "type": "address"
        },
        {
          "indexed": true,
          "internalType": "uint256",
          "name": "tokenId",
          "type": "uint256"
        }
      ],
      "name": "Transfer",
      "type": "event"
    },
    {
      "inputs": [
        {
          "internalType": "address",
          "name": "to",
          "type": "address"
        },
        {
          "internalType": "uint256",
          "name": "tokenId",
          "type": "uint256"
        }
      ],
      "name": "approve",
      "outputs": [],
      "stateMutability": "nonpayable",
      "type": "function"
    },
    {
      "inputs": [
        {
          "internalType": "uint256",
          "name": "_requestId",
          "type": "uint256"
        },
        {
          "internalType": "string",
          "name": "_tokenURI",
          "type": "string"
        }
      ],
      "name": "approveAadhaar",
      "outputs": [],
      "stateMutability": "nonpayable",
      "type": "function"
    },
    {
      "inputs": [
        {
          "internalType": "address",
          "name": "owner",
          "type": "address"
        }
      ],
      "name": "balanceOf",
      "outputs": [
        {
          "internalType": "uint256",
          "name": "",
          "type": "uint256"
        }
      ],
      "stateMutability": "view",
      "type": "function"
    },
    {
      "inputs": [
        {
          "internalType": "uint256",
          "name": "tokenId",
          "type": "uint256"
        }
      ],
      "name": "getApproved",
      "outputs": [
        {
          "internalType": "address",
          "name": "",
          "type": "address"
        }
      ],
      "stateMutability": "view",
      "type": "function"
    },
    {
      "inputs": [
        {
          "internalType": "uint256",
          "name": "requestId",
          "type": "uint256"
        }
      ],
      "name": "getRequestDetails",
      "outputs": [
        {
          "internalType": "address",
          "name": "",
          "type": "address"
        },
        {
          "internalType": "string",
          "name": "",
          "type": "string"
        },
        {
          "internalType": "string",
          "name": "",
          "type": "string"
        },
        {
          "internalType": "string",
          "name": "",
          "type": "string"
        },
        {
          "internalType": "string",
          "name": "",
          "type": "string"
        },
        {
          "internalType": "string",
          "name": "",
          "type": "string"
        },
        {
          "internalType": "enum AadhaarNFT.RequestStatus",
          "name": "",
          "type": "uint8"
        },
        {
          "internalType": "uint256",
          "name": "",
          "type": "uint256"
        }
      ],
      "stateMutability": "view",
      "type": "function"
    },
    {
      "inputs": [
        {
          "internalType": "address",
          "name": "user",
          "type": "address"
        }
      ],
      "name": "getUserRequests",
      "outputs": [
        {
          "internalType": "uint256[]",
          "name": "",
          "type": "uint256[]"
        }
      ],
      "stateMutability": "view",
      "type": "function"
    },
    {
      "inputs": [
        {
          "internalType": "address",
          "name": "owner",
          "type": "address"
        },
        {
          "internalType": "address",
          "name": "operator",
          "type": "address"
        }
      ],
      "name": "isApprovedForAll",
      "outputs": [
        {
          "internalType": "bool",
          "name": "",
          "type": "bool"
        }
      ],
      "stateMutability": "view",
      "type": "function"
    },
    {
      "inputs": [],
      "name": "name",
      "outputs": [
        {
          "internalType": "string",
          "name": "",
          "type": "string"
        }
      ],
      "stateMutability": "view",
      "type": "function"
    },
    {
      "inputs": [],
      "name": "owner",
      "outputs": [
        {
          "internalType": "address",
          "name": "",
          "type": "address"
        }
      ],
      "stateMutability": "view",
      "type": "function"
    },
    {
      "inputs": [
        {
          "internalType": "uint256",
          "name": "tokenId",
          "type": "uint256"
        }
      ],
      "name": "ownerOf",
      "outputs": [
        {
          "internalType": "address",
          "name": "",
          "type": "address"
        }
      ],
      "stateMutability": "view",
      "type": "function"
    },
    {
      "inputs": [
        {
          "internalType": "uint256",
          "name": "_requestId",
          "type": "uint256"
        }
      ],
      "name": "rejectAadhaar",
      "outputs": [],
      "stateMutability": "nonpayable",
      "type": "function"
    },
    {
      "inputs": [],
      "name": "renounceOwnership",
      "outputs": [],
      "stateMutability": "nonpayable",
      "type": "function"
    },
    {
      "inputs": [
        {
          "internalType": "string",
          "name": "_name",
          "type": "string"
        },
        {
          "internalType": "string",
          "name": "_dob",
          "type": "string"
        },
        {
          "internalType": "string",
          "name": "_gender",
          "type": "string"
        },
        {
          "internalType": "string",
          "name": "_addressDetails",
          "type": "string"
        },
        {
          "internalType": "string",
          "name": "_ipfsHash",
          "type": "string"
        }
      ],
      "name": "requestAadhaar",
      "outputs": [],
      "stateMutability": "nonpayable",
      "type": "function"
    },
    {
      "inputs": [
        {
          "internalType": "uint256",
          "name": "",
          "type": "uint256"
        }
      ],
      "name": "requests",
      "outputs": [
        {
          "internalType": "address",
          "name": "user",
          "type": "address"
        },
        {
          "internalType": "string",
          "name": "name",
          "type": "string"
        },
        {
          "internalType": "string",
          "name": "dob",
          "type": "string"
        },
        {
          "internalType": "string",
          "name": "gender",
          "type": "string"
        },
        {
          "internalType": "string",
          "name": "addressDetails",
          "type": "string"
        },
        {
          "internalType": "string",
          "name": "ipfsHash",
          "type": "string"
        },
        {
          "internalType": "enum AadhaarNFT.RequestStatus",
          "name": "status",
          "type": "uint8"
        },
        {
          "internalType": "uint256",
          "name": "tokenId",
          "type": "uint256"
        }
      ],
      "stateMutability": "view",
      "type": "function"
    },
    {
      "inputs": [
        {
          "internalType": "address",
          "name": "from",
          "type": "address"
        },
        {
          "internalType": "address",
          "name": "to",
          "type": "address"
        },
        {
          "internalType": "uint256",
          "name": "tokenId",
          "type": "uint256"
        }
      ],
      "name": "safeTransferFrom",
      "outputs": [],
      "stateMutability": "nonpayable",
      "type": "function"
    },
    {
      "inputs": [
        {
          "internalType": "address",
          "name": "from",
          "type": "address"
        },
        {
          "internalType": "address",
          "name": "to",
          "type": "address"
        },
        {
          "internalType": "uint256",
          "name": "tokenId",
          "type": "uint256"
        },
        {
          "internalType": "bytes",
          "name": "data",
          "type": "bytes"
        }
      ],
      "name": "safeTransferFrom",
      "outputs": [],
      "stateMutability": "nonpayable",
      "type": "function"
    },
    {
      "inputs": [
        {
          "internalType": "address",
          "name": "operator",
          "type": "address"
        },
        {
          "internalType": "bool",
          "name": "approved",
          "type": "bool"
        }
      ],
      "name": "setApprovalForAll",
      "outputs": [],
      "stateMutability": "nonpayable",
      "type": "function"
    },
    {
      "inputs": [
        {
          "internalType": "bytes4",
          "name": "interfaceId",
          "type": "bytes4"
        }
      ],
      "name": "supportsInterface",
      "outputs": [
        {
          "internalType": "bool",
          "name": "",
          "type": "bool"
        }
      ],
      "stateMutability": "view",
      "type": "function"
    },
    {
      "inputs": [],
      "name": "symbol",
      "outputs": [
        {
          "internalType": "string",
          "name": "",
          "type": "string"
        }
      ],
      "stateMutability": "view",
      "type": "function"
    },
    {
      "inputs": [],
      "name": "tokenCounter",
      "outputs": [
        {
          "internalType": "uint256",
          "name": "",
          "type": "uint256"
        }
      ],
      "stateMutability": "view",
      "type": "function"
    },
    {
      "inputs": [
        {
          "internalType": "uint256",
          "name": "tokenId",
          "type": "uint256"
        }
      ],
      "name": "tokenURI",
      "outputs": [
        {
          "internalType": "string",
          "name": "",
          "type": "string"
        }
      ],
      "stateMutability": "view",
      "type": "function"
    },
    {
      "inputs": [
        {
          "internalType": "address",
          "name": "from",
          "type": "address"
        },
        {
          "internalType": "address",
          "name": "to",
          "type": "address"
        },
        {
          "internalType": "uint256",
          "name": "tokenId",
          "type": "uint256"
        }
      ],
      "name": "transferFrom",
      "outputs": [],
      "stateMutability": "nonpayable",
      "type": "function"
    },
    {
      "inputs": [
        {
          "internalType": "address",
          "name": "newOwner",
          "type": "address"
        }
      ],
      "name": "transferOwnership",
      "outputs": [],
      "stateMutability": "nonpayable",
      "type": "function"
    },
    {
      "inputs": [
        {
          "internalType": "address",
          "name": "",
          "type": "address"
        },
        {
          "internalType": "uint256",
          "name": "",
          "type": "uint256"
        }
      ],
      "name": "userRequests",
      "outputs": [
        {
          "internalType": "uint256",
          "name": "",
          "type": "uint256"
        }
      ],
      "stateMutability": "view",
      "type": "function"
    }
  ],
  "bytecode": "0x60806040523480156200001157600080fd5b50336040518060400160405280600a81526020017f416164686161724e4654000000000000000000000000000000000000000000008152506040518060400160405280600381526020017f414144000000000000000000000000000000000000000000000000000000000081525081600090816200009091906200047a565b508060019081620000a291906200047a565b505050600073ffffffffffffffffffffffffffffffffffffffff168173ffffffffffffffffffffffffffffffffffffffff16036200011a5760006040517f1e4fbdf7000000000000000000000000000000000000000000000000000000008152600401620001119190620005a6565b60405180910390fd5b6200012b816200013a60201b60201c565b506001600881905550620005c3565b6000600760009054906101000a900473ffffffffffffffffffffffffffffffffffffffff16905081600760006101000a81548173ffffffffffffffffffffffffffffffffffffffff021916908373ffffffffffffffffffffffffffffffffffffffff1602179055508173ffffffffffffffffffffffffffffffffffffffff168173ffffffffffffffffffffffffffffffffffffffff167f8be0079c531659141344cd1fd0a4f28419497f9722a3daafe3b4186f6b6457e060405160405180910390a35050565b600081519050919050565b7f4e487b7100000000000000000000000000000000000000000000000000000000600052604160045260246000fd5b7f4e487b7100000000000000000000000000000000000000000000000000000000600052602260045260246000fd5b600060028204905060018216806200028257607f821691505b6020821081036200029857620002976200023a565b5b50919050565b60008190508160005260206000209050919050565b60006020601f8301049050919050565b600082821b905092915050565b600060088302620003027fffffffffffffffffffffffffffffffffffffffffffffffffffffffffffffffff82620002c3565b6200030e8683620002c3565b95508019841693508086168417925050509392505050565b6000819050919050565b6000819050919050565b60006200035b620003556200034f8462000326565b62000330565b62000326565b9050919050565b6000819050919050565b62000377836200033a565b6200038f620003868262000362565b848454620002d0565b825550505050565b600090565b620003a662000397565b620003b38184846200036c565b505050565b5b81811015620003db57620003cf6000826200039c565b600181019050620003b9565b5050565b601f8211156200042a57620003f4816200029e565b620003ff84620002b3565b810160208510156200040f578190505b620004276200041e85620002b3565b830182620003b8565b50505b505050565b600082821c905092915050565b60006200044f600019846008026200042f565b1980831691505092915050565b60006200046a83836200043c565b9150826002028217905092915050565b620004858262000200565b67ffffffffffffffff811115620004a157620004a06200020b565b5b620004ad825462000269565b620004ba828285620003df565b600060209050601f831160018114620004f25760008415620004dd578287015190505b620004e985826200045c565b86555062000559565b601f19841662000502866200029e565b60005b828110156200052c5784890151825560018201915060208501945060208101905062000505565b868310156200054c578489015162000548601f8916826200043c565b8355505b6001600288020188555050505b505050505050565b600073ffffffffffffffffffffffffffffffffffffffff82169050919050565b60006200058e8262000561565b9050919050565b620005a08162000581565b82525050565b6000602082019050620005bd600083018462000595565b92915050565b61370b80620005d36000396000f3fe608060405234801561001057600080fd5b50600436106101575760003560e01c806381d12c58116100c3578063c87b56dd1161007c578063c87b56dd146103db578063d082e3811461040b578063dbba1d9d14610429578063e985e9c514610445578063f2fde38b14610475578063f34d4c631461049157610157565b806381d12c58146103005780638da5cb5b1461033757806395d89b4114610355578063a22cb46514610373578063b337cf741461038f578063b88d4fde146103bf57610157565b806323b872dd1161011557806323b872dd1461022e578063263cb6b61461024a57806342842e0e1461027a5780636352211e1461029657806370a08231146102c6578063715018a6146102f657610157565b806236e0101461015c57806301ffc9a71461017857806306fdde03146101a8578063081812fc146101c6578063095ea7b3146101f65780631b891d2214610212575b600080fd5b610176600480360381019061017191906128bd565b6104c8565b005b610192600480360381019061018d9190612a1c565b61068b565b60405161019f9190612a64565b60405180910390f35b6101b06106ec565b6040516101bd9190612afe565b60405180910390f35b6101e060048036038101906101db9190612b56565b61077e565b6040516101ed9190612bc4565b60405180910390f35b610210600480360381019061020b9190612c0b565b61079a565b005b61022c60048036038101906102279190612c4b565b6107b0565b005b61024860048036038101906102439190612ca7565b6108f9565b005b610264600480360381019061025f9190612c0b565b6109fb565b6040516102719190612d09565b60405180910390f35b610294600480360381019061028f9190612ca7565b610a2c565b005b6102b060048036038101906102ab9190612b56565b610a4c565b6040516102bd9190612bc4565b60405180910390f35b6102e060048036038101906102db9190612d24565b610a5e565b6040516102ed9190612d09565b60405180910390f35b6102fe610b18565b005b61031a60048036038101906103159190612b56565b610b2c565b60405161032e989796959493929190612dc8565b60405180910390f35b61033f610e49565b60405161034c9190612bc4565b60405180910390f35b61035d610e73565b60405161036a9190612afe565b60405180910390f35b61038d60048036038101906103889190612e95565b610f05565b005b6103a960048036038101906103a49190612d24565b610f1b565b6040516103b69190612f93565b60405180910390f35b6103d960048036038101906103d49190613056565b610fb2565b005b6103f560048036038101906103f09190612b56565b610fd7565b6040516104029190612afe565b60405180910390f35b6104136110ea565b6040516104209190612d09565b60405180910390f35b610443600480360381019061043e9190612b56565b6110f0565b005b61045f600480360381019061045a91906130d9565b6111ef565b60405161046c9190612a64565b60405180910390f35b61048f600480360381019061048a9190612d24565b611283565b005b6104ab60048036038101906104a69190612b56565b611309565b6040516104bf989796959493929190612dc8565b60405180910390f35b6000600860008154809291906104dd90613148565b9190505590506000600960008381526020019081526020016000209050338160000160006101000a81548173ffffffffffffffffffffffffffffffffffffffff021916908373ffffffffffffffffffffffffffffffffffffffff1602179055508681600101908161054e919061339c565b5085816002019081610560919061339c565b5084816003019081610572919061339c565b5083816004019081610584919061339c565b5082816005019081610596919061339c565b5060008160060160006101000a81548160ff021916908360028111156105bf576105be612d51565b5b021790555060008160070181905550600a60003373ffffffffffffffffffffffffffffffffffffffff1673ffffffffffffffffffffffffffffffffffffffff1681526020019081526020016000208290806001815401808255809150506001900390600052602060002001600090919091909150553373ffffffffffffffffffffffffffffffffffffffff167f76858a48aaf37f387686ba2c600f8aec80ac26d88b83bf997b4a6201e96250338360405161067a9190612d09565b60405180910390a250505050505050565b6000634906490660e01b7bffffffffffffffffffffffffffffffffffffffffffffffffffffffff1916827bffffffffffffffffffffffffffffffffffffffffffffffffffffffff191614806106e557506106e4826116f2565b5b9050919050565b6060600080546106fb906131bf565b80601f0160208091040260200160405190810160405280929190818152602001828054610727906131bf565b80156107745780601f1061074957610100808354040283529160200191610774565b820191906000526020600020905b81548152906001019060200180831161075757829003601f168201915b5050505050905090565b6000610789826117d4565b506107938261185c565b9050919050565b6107ac82826107a7611899565b6118a1565b5050565b6107b86118b3565b6000600960008481526020019081526020016000209050600060028111156107e3576107e2612d51565b5b8160060160009054906101000a900460ff16600281111561080757610806612d51565b5b14610847576040517f08c379a000000000000000000000000000000000000000000000000000000000815260040161083e906134ba565b60405180910390fd5b600083905061087a8260000160009054906101000a900473ffffffffffffffffffffffffffffffffffffffff168261193a565b6108848184611958565b60018260060160006101000a81548160ff021916908360028111156108ac576108ab612d51565b5b02179055508082600701819055507f2b888f0a085eb6727722e9c695bf99b059dc0fd6bf29ff031964623de44e6c9284826040516108eb9291906134da565b60405180910390a150505050565b600073ffffffffffffffffffffffffffffffffffffffff168273ffffffffffffffffffffffffffffffffffffffff160361096b5760006040517f64a0ae920000000000000000000000000000000000000000000000000000000081526004016109629190612bc4565b60405180910390fd5b600061097f838361097a611899565b6119b4565b90508373ffffffffffffffffffffffffffffffffffffffff168173ffffffffffffffffffffffffffffffffffffffff16146109f5578382826040517f64283d7b0000000000000000000000000000000000000000000000000000000081526004016109ec93929190613503565b60405180910390fd5b50505050565b600a6020528160005260406000208181548110610a1757600080fd5b90600052602060002001600091509150505481565b610a4783838360405180602001604052806000815250610fb2565b505050565b6000610a57826117d4565b9050919050565b60008073ffffffffffffffffffffffffffffffffffffffff168273ffffffffffffffffffffffffffffffffffffffff1603610ad15760006040517f89c62b64000000000000000000000000000000000000000000000000000000008152600401610ac89190612bc4565b60405180910390fd5b600360008373ffffffffffffffffffffffffffffffffffffffff1673ffffffffffffffffffffffffffffffffffffffff168152602001908152602001600020549050919050565b610b206118b3565b610b2a6000611bce565b565b60096020528060005260406000206000915090508060000160009054906101000a900473ffffffffffffffffffffffffffffffffffffffff1690806001018054610b75906131bf565b80601f0160208091040260200160405190810160405280929190818152602001828054610ba1906131bf565b8015610bee5780601f10610bc357610100808354040283529160200191610bee565b820191906000526020600020905b815481529060010190602001808311610bd157829003601f168201915b505050505090806002018054610c03906131bf565b80601f0160208091040260200160405190810160405280929190818152602001828054610c2f906131bf565b8015610c7c5780601f10610c5157610100808354040283529160200191610c7c565b820191906000526020600020905b815481529060010190602001808311610c5f57829003601f168201915b505050505090806003018054610c91906131bf565b80601f0160208091040260200160405190810160405280929190818152602001828054610cbd906131bf565b8015610d0a5780601f10610cdf57610100808354040283529160200191610d0a565b820191906000526020600020905b815481529060010190602001808311610ced57829003601f168201915b505050505090806004018054610d1f906131bf565b80601f0160208091040260200160405190810160405280929190818152602001828054610d4b906131bf565b8015610d985780601f10610d6d57610100808354040283529160200191610d98565b820191906000526020600020905b815481529060010190602001808311610d7b57829003601f168201915b505050505090806005018054610dad906131bf565b80601f0160208091040260200160405190810160405280929190818152602001828054610dd9906131bf565b8015610e265780601f10610dfb57610100808354040283529160200191610e26565b820191906000526020600020905b815481529060010190602001808311610e0957829003601f168201915b5050505050908060060160009054906101000a900460ff16908060070154905088565b6000600760009054906101000a900473ffffffffffffffffffffffffffffffffffffffff16905090565b606060018054610e82906131bf565b80601f0160208091040260200160405190810160405280929190818152602001828054610eae906131bf565b8015610efb5780601f10610ed057610100808354040283529160200191610efb565b820191906000526020600020905b815481529060010190602001808311610ede57829003601f168201915b5050505050905090565b610f17610f10611899565b8383611c94565b5050565b6060600a60008373ffffffffffffffffffffffffffffffffffffffff1673ffffffffffffffffffffffffffffffffffffffff168152602001908152602001600020805480602002602001604051908101604052809291908181526020018280548015610fa657602002820191906000526020600020905b815481526020019060010190808311610f92575b50505050509050919050565b610fbd8484846108f9565b610fd1610fc8611899565b85858585611e03565b50505050565b6060610fe2826117d4565b506000600660008481526020019081526020016000208054611003906131bf565b80601f016020809104026020016040519081016040528092919081815260200182805461102f906131bf565b801561107c5780601f106110515761010080835404028352916020019161107c565b820191906000526020600020905b81548152906001019060200180831161105f57829003601f168201915b50505050509050600061108d611fb4565b905060008151036110a25781925050506110e5565b6000825111156110d75780826040516020016110bf929190613576565b604051602081830303815290604052925050506110e5565b6110e084611fcb565b925050505b919050565b60085481565b6110f86118b3565b60006009600083815260200190815260200160002090506000600281111561112357611122612d51565b5b8160060160009054906101000a900460ff16600281111561114757611146612d51565b5b14611187576040517f08c379a000000000000000000000000000000000000000000000000000000000815260040161117e906134ba565b60405180910390fd5b60028160060160006101000a81548160ff021916908360028111156111af576111ae612d51565b5b02179055507f5fd22d3e33ca545acd5d02d1e81fc7d50b48950ba9dba5a304375e16c998f8ec826040516111e39190612d09565b60405180910390a15050565b6000600560008473ffffffffffffffffffffffffffffffffffffffff1673ffffffffffffffffffffffffffffffffffffffff16815260200190815260200160002060008373ffffffffffffffffffffffffffffffffffffffff1673ffffffffffffffffffffffffffffffffffffffff16815260200190815260200160002060009054906101000a900460ff16905092915050565b61128b6118b3565b600073ffffffffffffffffffffffffffffffffffffffff168173ffffffffffffffffffffffffffffffffffffffff16036112fd5760006040517f1e4fbdf70000000000000000000000000000000000000000000000000000000081526004016112f49190612bc4565b60405180910390fd5b61130681611bce565b50565b600060608060608060606000806000600960008b8152602001908152602001600020604051806101000160405290816000820160009054906101000a900473ffffffffffffffffffffffffffffffffffffffff1673ffffffffffffffffffffffffffffffffffffffff1673ffffffffffffffffffffffffffffffffffffffff16815260200160018201805461139d906131bf565b80601f01602080910402602001604051908101604052809291908181526020018280546113c9906131bf565b80156114165780601f106113eb57610100808354040283529160200191611416565b820191906000526020600020905b8154815290600101906020018083116113f957829003601f168201915b5050505050815260200160028201805461142f906131bf565b80601f016020809104026020016040519081016040528092919081815260200182805461145b906131bf565b80156114a85780601f1061147d576101008083540402835291602001916114a8565b820191906000526020600020905b81548152906001019060200180831161148b57829003601f168201915b505050505081526020016003820180546114c1906131bf565b80601f01602080910402602001604051908101604052809291908181526020018280546114ed906131bf565b801561153a5780601f1061150f5761010080835404028352916020019161153a565b820191906000526020600020905b81548152906001019060200180831161151d57829003601f168201915b50505050508152602001600482018054611553906131bf565b80601f016020809104026020016040519081016040528092919081815260200182805461157f906131bf565b80156115cc5780601f106115a1576101008083540402835291602001916115cc565b820191906000526020600020905b8154815290600101906020018083116115af57829003601f168201915b505050505081526020016005820180546115e5906131bf565b80601f0160208091040260200160405190810160405280929190818152602001828054611611906131bf565b801561165e5780601f106116335761010080835404028352916020019161165e565b820191906000526020600020905b81548152906001019060200180831161164157829003601f168201915b505050505081526020016006820160009054906101000a900460ff16600281111561168c5761168b612d51565b5b600281111561169e5761169d612d51565b5b81526020016007820154815250509050806000015181602001518260400151836060015184608001518560a001518660c001518760e001519850985098509850985098509850985050919395975091939597565b60007f80ac58cd000000000000000000000000000000000000000000000000000000007bffffffffffffffffffffffffffffffffffffffffffffffffffffffff1916827bffffffffffffffffffffffffffffffffffffffffffffffffffffffff191614806117bd57507f5b5e139f000000000000000000000000000000000000000000000000000000007bffffffffffffffffffffffffffffffffffffffffffffffffffffffff1916827bffffffffffffffffffffffffffffffffffffffffffffffffffffffff1916145b806117cd57506117cc82612034565b5b9050919050565b6000806117e08361209e565b9050600073ffffffffffffffffffffffffffffffffffffffff168173ffffffffffffffffffffffffffffffffffffffff160361185357826040517f7e27328900000000000000000000000000000000000000000000000000000000815260040161184a9190612d09565b60405180910390fd5b80915050919050565b60006004600083815260200190815260200160002060009054906101000a900473ffffffffffffffffffffffffffffffffffffffff169050919050565b600033905090565b6118ae83838360016120db565b505050565b6118bb611899565b73ffffffffffffffffffffffffffffffffffffffff166118d9610e49565b73ffffffffffffffffffffffffffffffffffffffff1614611938576118fc611899565b6040517f118cdaa700000000000000000000000000000000000000000000000000000000815260040161192f9190612bc4565b60405180910390fd5b565b6119548282604051806020016040528060008152506122a0565b5050565b80600660008481526020019081526020016000209081611978919061339c565b507ff8e1a15aba9398e019f0b49df1a4fde98ee17ae345cb5f6b5e2c27f5033e8ce7826040516119a89190612d09565b60405180910390a15050565b6000806119c08461209e565b9050600073ffffffffffffffffffffffffffffffffffffffff168373ffffffffffffffffffffffffffffffffffffffff1614611a0257611a018184866122c4565b5b600073ffffffffffffffffffffffffffffffffffffffff168173ffffffffffffffffffffffffffffffffffffffff1614611a9357611a446000856000806120db565b6001600360008373ffffffffffffffffffffffffffffffffffffffff1673ffffffffffffffffffffffffffffffffffffffff168152602001908152602001600020600082825403925050819055505b600073ffffffffffffffffffffffffffffffffffffffff168573ffffffffffffffffffffffffffffffffffffffff1614611b16576001600360008773ffffffffffffffffffffffffffffffffffffffff1673ffffffffffffffffffffffffffffffffffffffff168152602001908152602001600020600082825401925050819055505b846002600086815260200190815260200160002060006101000a81548173ffffffffffffffffffffffffffffffffffffffff021916908373ffffffffffffffffffffffffffffffffffffffff160217905550838573ffffffffffffffffffffffffffffffffffffffff168273ffffffffffffffffffffffffffffffffffffffff167fddf252ad1be2c89b69c2b068fc378daa952ba7f163c4a11628f55a4df523b3ef60405160405180910390a4809150509392505050565b6000600760009054906101000a900473ffffffffffffffffffffffffffffffffffffffff16905081600760006101000a81548173ffffffffffffffffffffffffffffffffffffffff021916908373ffffffffffffffffffffffffffffffffffffffff1602179055508173ffffffffffffffffffffffffffffffffffffffff168173ffffffffffffffffffffffffffffffffffffffff167f8be0079c531659141344cd1fd0a4f28419497f9722a3daafe3b4186f6b6457e060405160405180910390a35050565b600073ffffffffffffffffffffffffffffffffffffffff168273ffffffffffffffffffffffffffffffffffffffff1603611d0557816040517f5b08ba18000000000000000000000000000000000000000000000000000000008152600401611cfc9190612bc4565b60405180910390fd5b80600560008573ffffffffffffffffffffffffffffffffffffffff1673ffffffffffffffffffffffffffffffffffffffff16815260200190815260200160002060008473ffffffffffffffffffffffffffffffffffffffff1673ffffffffffffffffffffffffffffffffffffffff16815260200190815260200160002060006101000a81548160ff0219169083151502179055508173ffffffffffffffffffffffffffffffffffffffff168373ffffffffffffffffffffffffffffffffffffffff167f17307eab39ab6107e8899845ad3d59bd9653f200f220920489ca2b5937696c3183604051611df69190612a64565b60405180910390a3505050565b60008373ffffffffffffffffffffffffffffffffffffffff163b1115611fad578273ffffffffffffffffffffffffffffffffffffffff1663150b7a02868685856040518563ffffffff1660e01b8152600401611e6294939291906135ef565b6020604051808303816000875af1925050508015611e9e57506040513d601f19601f82011682018060405250810190611e9b9190613650565b60015b611f22573d8060008114611ece576040519150601f19603f3d011682016040523d82523d6000602084013e611ed3565b606091505b506000815103611f1a57836040517f64a0ae92000000000000000000000000000000000000000000000000000000008152600401611f119190612bc4565b60405180910390fd5b805181602001fd5b63150b7a0260e01b7bffffffffffffffffffffffffffffffffffffffffffffffffffffffff1916817bffffffffffffffffffffffffffffffffffffffffffffffffffffffff191614611fab57836040517f64a0ae92000000000000000000000000000000000000000000000000000000008152600401611fa29190612bc4565b60405180910390fd5b505b5050505050565b606060405180602001604052806000815250905090565b6060611fd6826117d4565b506000611fe1611fb4565b90506000815111612001576040518060200160405280600081525061202c565b8061200b84612388565b60405160200161201c929190613576565b6040516020818303038152906040525b915050919050565b60007f01ffc9a7000000000000000000000000000000000000000000000000000000007bffffffffffffffffffffffffffffffffffffffffffffffffffffffff1916827bffffffffffffffffffffffffffffffffffffffffffffffffffffffff1916149050919050565b60006002600083815260200190815260200160002060009054906101000a900473ffffffffffffffffffffffffffffffffffffffff169050919050565b80806121145750600073ffffffffffffffffffffffffffffffffffffffff168273ffffffffffffffffffffffffffffffffffffffff1614155b15612248576000612124846117d4565b9050600073ffffffffffffffffffffffffffffffffffffffff168373ffffffffffffffffffffffffffffffffffffffff161415801561218f57508273ffffffffffffffffffffffffffffffffffffffff168173ffffffffffffffffffffffffffffffffffffffff1614155b80156121a257506121a081846111ef565b155b156121e457826040517fa9fbf51f0000000000000000000000000000000000000000000000000000000081526004016121db9190612bc4565b60405180910390fd5b811561224657838573ffffffffffffffffffffffffffffffffffffffff168273ffffffffffffffffffffffffffffffffffffffff167f8c5be1e5ebec7d5bd14f71427d1e84f3dd0314c0f7b2291e5b200ac8c7c3b92560405160405180910390a45b505b836004600085815260200190815260200160002060006101000a81548173ffffffffffffffffffffffffffffffffffffffff021916908373ffffffffffffffffffffffffffffffffffffffff16021790555050505050565b6122aa8383612456565b6122bf6122b5611899565b6000858585611e03565b505050565b6122cf83838361254f565b61238357600073ffffffffffffffffffffffffffffffffffffffff168373ffffffffffffffffffffffffffffffffffffffff160361234457806040517f7e27328900000000000000000000000000000000000000000000000000000000815260040161233b9190612d09565b60405180910390fd5b81816040517f177e802f00000000000000000000000000000000000000000000000000000000815260040161237a92919061367d565b60405180910390fd5b505050565b60606000600161239784612610565b01905060008167ffffffffffffffff8111156123b6576123b5612792565b5b6040519080825280601f01601f1916602001820160405280156123e85781602001600182028036833780820191505090505b509050600082602001820190505b60011561244b578080600190039150507f3031323334353637383961626364656600000000000000000000000000000000600a86061a8153600a858161243f5761243e6136a6565b5b049450600085036123f6575b819350505050919050565b600073ffffffffffffffffffffffffffffffffffffffff168273ffffffffffffffffffffffffffffffffffffffff16036124c85760006040517f64a0ae920000000000000000000000000000000000000000000000000000000081526004016124bf9190612bc4565b60405180910390fd5b60006124d6838360006119b4565b9050600073ffffffffffffffffffffffffffffffffffffffff168173ffffffffffffffffffffffffffffffffffffffff161461254a5760006040517f73c6ac6e0000000000000000000000000000000000000000000000000000000081526004016125419190612bc4565b60405180910390fd5b505050565b60008073ffffffffffffffffffffffffffffffffffffffff168373ffffffffffffffffffffffffffffffffffffffff161415801561260757508273ffffffffffffffffffffffffffffffffffffffff168473ffffffffffffffffffffffffffffffffffffffff1614806125c857506125c784846111ef565b5b8061260657508273ffffffffffffffffffffffffffffffffffffffff166125ee8361185c565b73ffffffffffffffffffffffffffffffffffffffff16145b5b90509392505050565b600080600090507a184f03e93ff9f4daa797ed6e38ed64bf6a1f010000000000000000831061266e577a184f03e93ff9f4daa797ed6e38ed64bf6a1f0100000000000000008381612664576126636136a6565b5b0492506040810190505b6d04ee2d6d415b85acef810000000083106126ab576d04ee2d6d415b85acef810000000083816126a1576126a06136a6565b5b0492506020810190505b662386f26fc1000083106126da57662386f26fc1000083816126d0576126cf6136a6565b5b0492506010810190505b6305f5e1008310612703576305f5e10083816126f9576126f86136a6565b5b0492506008810190505b612710831061272857612710838161271e5761271d6136a6565b5b0492506004810190505b6064831061274b5760648381612741576127406136a6565b5b0492506002810190505b600a831061275a576001810190505b80915050919050565b6000604051905090565b600080fd5b600080fd5b600080fd5b600080fd5b6000601f19601f8301169050919050565b7f4e487b7100000000000000000000000000000000000000000000000000000000600052604160045260246000fd5b6127ca82612781565b810181811067ffffffffffffffff821117156127e9576127e8612792565b5b80604052505050565b60006127fc612763565b905061280882826127c1565b919050565b600067ffffffffffffffff82111561282857612827612792565b5b61283182612781565b9050602081019050919050565b82818337600083830152505050565b600061286061285b8461280d565b6127f2565b90508281526020810184848401111561287c5761287b61277c565b5b61288784828561283e565b509392505050565b600082601f8301126128a4576128a3612777565b5b81356128b484826020860161284d565b91505092915050565b600080600080600060a086880312156128d9576128d861276d565b5b600086013567ffffffffffffffff8111156128f7576128f6612772565b5b6129038882890161288f565b955050602086013567ffffffffffffffff81111561292457612923612772565b5b6129308882890161288f565b945050604086013567ffffffffffffffff81111561295157612950612772565b5b61295d8882890161288f565b935050606086013567ffffffffffffffff81111561297e5761297d612772565b5b61298a8882890161288f565b925050608086013567ffffffffffffffff8111156129ab576129aa612772565b5b6129b78882890161288f565b9150509295509295909350565b60007fffffffff0000000000000000000000000000000000000000000000000000000082169050919050565b6129f9816129c4565b8114612a0457600080fd5b50565b600081359050612a16816129f0565b92915050565b600060208284031215612a3257612a3161276d565b5b6000612a4084828501612a07565b91505092915050565b60008115159050919050565b612a5e81612a49565b82525050565b6000602082019050612a796000830184612a55565b92915050565b600081519050919050565b600082825260208201905092915050565b60005b83811015612ab9578082015181840152602081019050612a9e565b60008484015250505050565b6000612ad082612a7f565b612ada8185612a8a565b9350612aea818560208601612a9b565b612af381612781565b840191505092915050565b60006020820190508181036000830152612b188184612ac5565b905092915050565b6000819050919050565b612b3381612b20565b8114612b3e57600080fd5b50565b600081359050612b5081612b2a565b92915050565b600060208284031215612b6c57612b6b61276d565b5b6000612b7a84828501612b41565b91505092915050565b600073ffffffffffffffffffffffffffffffffffffffff82169050919050565b6000612bae82612b83565b9050919050565b612bbe81612ba3565b82525050565b6000602082019050612bd96000830184612bb5565b92915050565b612be881612ba3565b8114612bf357600080fd5b50565b600081359050612c0581612bdf565b92915050565b60008060408385031215612c2257612c2161276d565b5b6000612c3085828601612bf6565b9250506020612c4185828601612b41565b9150509250929050565b60008060408385031215612c6257612c6161276d565b5b6000612c7085828601612b41565b925050602083013567ffffffffffffffff811115612c9157612c90612772565b5b612c9d8582860161288f565b9150509250929050565b600080600060608486031215612cc057612cbf61276d565b5b6000612cce86828701612bf6565b9350506020612cdf86828701612bf6565b9250506040612cf086828701612b41565b9150509250925092565b612d0381612b20565b82525050565b6000602082019050612d1e6000830184612cfa565b92915050565b600060208284031215612d3a57612d3961276d565b5b6000612d4884828501612bf6565b91505092915050565b7f4e487b7100000000000000000000000000000000000000000000000000000000600052602160045260246000fd5b60038110612d9157612d90612d51565b5b50565b6000819050612da282612d80565b919050565b6000612db282612d94565b9050919050565b612dc281612da7565b82525050565b600061010082019050612dde600083018b612bb5565b8181036020830152612df0818a612ac5565b90508181036040830152612e048189612ac5565b90508181036060830152612e188188612ac5565b90508181036080830152612e2c8187612ac5565b905081810360a0830152612e408186612ac5565b9050612e4f60c0830185612db9565b612e5c60e0830184612cfa565b9998505050505050505050565b612e7281612a49565b8114612e7d57600080fd5b50565b600081359050612e8f81612e69565b92915050565b60008060408385031215612eac57612eab61276d565b5b6000612eba85828601612bf6565b9250506020612ecb85828601612e80565b9150509250929050565b600081519050919050565b600082825260208201905092915050565b6000819050602082019050919050565b612f0a81612b20565b82525050565b6000612f1c8383612f01565b60208301905092915050565b6000602082019050919050565b6000612f4082612ed5565b612f4a8185612ee0565b9350612f5583612ef1565b8060005b83811015612f86578151612f6d8882612f10565b9750612f7883612f28565b925050600181019050612f59565b5085935050505092915050565b60006020820190508181036000830152612fad8184612f35565b905092915050565b600067ffffffffffffffff821115612fd057612fcf612792565b5b612fd982612781565b9050602081019050919050565b6000612ff9612ff484612fb5565b6127f2565b9050828152602081018484840111156130155761301461277c565b5b61302084828561283e565b509392505050565b600082601f83011261303d5761303c612777565b5b813561304d848260208601612fe6565b91505092915050565b600080600080608085870312156130705761306f61276d565b5b600061307e87828801612bf6565b945050602061308f87828801612bf6565b93505060406130a087828801612b41565b925050606085013567ffffffffffffffff8111156130c1576130c0612772565b5b6130cd87828801613028565b91505092959194509250565b600080604083850312156130f0576130ef61276d565b5b60006130fe85828601612bf6565b925050602061310f85828601612bf6565b9150509250929050565b7f4e487b7100000000000000000000000000000000000000000000000000000000600052601160045260246000fd5b600061315382612b20565b91507fffffffffffffffffffffffffffffffffffffffffffffffffffffffffffffffff820361318557613184613119565b5b600182019050919050565b7f4e487b7100000000000000000000000000000000000000000000000000000000600052602260045260246000fd5b600060028204905060018216806131d757607f821691505b6020821081036131ea576131e9613190565b5b50919050565b60008190508160005260206000209050919050565b60006020601f8301049050919050565b600082821b905092915050565b6000600883026132527fffffffffffffffffffffffffffffffffffffffffffffffffffffffffffffffff82613215565b61325c8683613215565b95508019841693508086168417925050509392505050565b6000819050919050565b600061329961329461328f84612b20565b613274565b612b20565b9050919050565b6000819050919050565b6132b38361327e565b6132c76132bf826132a0565b848454613222565b825550505050565b600090565b6132dc6132cf565b6132e78184846132aa565b505050565b5b8181101561330b576133006000826132d4565b6001810190506132ed565b5050565b601f82111561335057613321816131f0565b61332a84613205565b81016020851015613339578190505b61334d61334585613205565b8301826132ec565b50505b505050565b600082821c905092915050565b600061337360001984600802613355565b1980831691505092915050565b600061338c8383613362565b9150826002028217905092915050565b6133a582612a7f565b67ffffffffffffffff8111156133be576133bd612792565b5b6133c882546131bf565b6133d382828561330f565b600060209050601f83116001811461340657600084156133f4578287015190505b6133fe8582613380565b865550613466565b601f198416613414866131f0565b60005b8281101561343c57848901518255600182019150602085019450602081019050613417565b868310156134595784890151613455601f891682613362565b8355505b6001600288020188555050505b505050505050565b7f416c72656164792070726f636573736564000000000000000000000000000000600082015250565b60006134a4601183612a8a565b91506134af8261346e565b602082019050919050565b600060208201905081810360008301526134d381613497565b9050919050565b60006040820190506134ef6000830185612cfa565b6134fc6020830184612cfa565b9392505050565b60006060820190506135186000830186612bb5565b6135256020830185612cfa565b6135326040830184612bb5565b949350505050565b600081905092915050565b600061355082612a7f565b61355a818561353a565b935061356a818560208601612a9b565b80840191505092915050565b60006135828285613545565b915061358e8284613545565b91508190509392505050565b600081519050919050565b600082825260208201905092915050565b60006135c18261359a565b6135cb81856135a5565b93506135db818560208601612a9b565b6135e481612781565b840191505092915050565b60006080820190506136046000830187612bb5565b6136116020830186612bb5565b61361e6040830185612cfa565b818103606083015261363081846135b6565b905095945050505050565b60008151905061364a816129f0565b92915050565b6000602082840312156136665761366561276d565b5b60006136748482850161363b565b91505092915050565b60006040820190506136926000830185612bb5565b61369f6020830184612cfa565b9392505050565b7f4e487b7100000000000000000000000000000000000000000000000000000000600052601260045260246000fdfea2646970667358221220227050a2db820449292efdf6d596ea3ee7e1bb37efb3e58d364bd42ee235827e64736f6c63430008140033",
  "linkReferences": {},
  "deployedLinkReferences": {}
}