{
  "_format": "hh-sol-artifact-1",
  "contractName": "DocumentNFT",
  "sourceName": "contracts/solidity.sol",
  "abi": [
    {
      "inputs": [],
      "stateMutability": "nonpayable",
      "type": "constructor"
    },
    {
      "inputs": [
        {
          "internalType": "address",
          "name": "sender",
          "type": "address"
        },
        {
          "internalType": "uint256",
          "name": "tokenId",
          "type": "uint256"
        },
        {
          "internalType": "address",
          "name": "owner",
          "type": "address"
        }
      ],
      "name": "ERC721IncorrectOwner",
      "type": "error"
    },
    {
      "inputs": [
        {
          "internalType": "address",
          "name": "operator",
          "type": "address"
        },
        {
          "internalType": "uint256",
          "name": "tokenId",
          "type": "uint256"
        }
      ],
      "name": "ERC721InsufficientApproval",
      "type": "error"
    },
    {
      "inputs": [
        {
          "internalType": "address",
          "name": "approver",
          "type": "address"
        }
      ],
      "name": "ERC721InvalidApprover",
      "type": "error"
    },
    {
      "inputs": [
        {
          "internalType": "address",
          "name": "operator",
          "type": "address"
        }
      ],
      "name": "ERC721InvalidOperator",
      "type": "error"
    },
    {
      "inputs": [
        {
          "internalType": "address",
          "name": "owner",
          "type": "address"
        }
      ],
      "name": "ERC721InvalidOwner",
      "type": "error"
    },
    {
      "inputs": [
        {
          "internalType": "address",
          "name": "receiver",
          "type": "address"
        }
      ],
      "name": "ERC721InvalidReceiver",
      "type": "error"
    },
    {
      "inputs": [
        {
          "internalType": "address",
          "name": "sender",
          "type": "address"
        }
      ],
      "name": "ERC721InvalidSender",
      "type": "error"
    },
    {
      "inputs": [
        {
          "internalType": "uint256",
          "name": "tokenId",
          "type": "uint256"
        }
      ],
      "name": "ERC721NonexistentToken",
      "type": "error"
    },
    {
      "inputs": [
        {
          "internalType": "address",
          "name": "owner",
          "type": "address"
        }
      ],
      "name": "OwnableInvalidOwner",
      "type": "error"
    },
    {
      "inputs": [
        {
          "internalType": "address",
          "name": "account",
          "type": "address"
        }
      ],
      "name": "OwnableUnauthorizedAccount",
      "type": "error"
    },
    {
      "anonymous": false,
      "inputs": [
        {
          "indexed": true,
          "internalType": "address",
          "name": "owner",
          "type": "address"
        },
        {
          "indexed": true,
          "internalType": "address",
          "name": "approved",
          "type": "address"
        },
        {
          "indexed": true,
          "internalType": "uint256",
          "name": "tokenId",
          "type": "uint256"
        }
      ],
      "name": "Approval",
      "type": "event"
    },
    {
      "anonymous": false,
      "inputs": [
        {
          "indexed": true,
          "internalType": "address",
          "name": "owner",
          "type": "address"
        },
        {
          "indexed": true,
          "internalType": "address",
          "name": "operator",
          "type": "address"
        },
        {
          "indexed": false,
          "internalType": "bool",
          "name": "approved",
          "type": "bool"
        }
      ],
      "name": "ApprovalForAll",
      "type": "event"
    },
    {
      "anonymous": false,
      "inputs": [
        {
          "indexed": false,
          "internalType": "uint256",
          "name": "_fromTokenId",
          "type": "uint256"
        },
        {
          "indexed": false,
          "internalType": "uint256",
          "name": "_toTokenId",
          "type": "uint256"
        }
      ],
      "name": "BatchMetadataUpdate",
      "type": "event"
    },
    {
      "anonymous": false,
      "inputs": [
        {
          "indexed": false,
          "internalType": "uint256",
          "name": "requestId",
          "type": "uint256"
        },
        {
          "indexed": false,
          "internalType": "uint256",
          "name": "tokenId",
          "type": "uint256"
        }
      ],
      "name": "DocumentApproved",
      "type": "event"
    },
    {
      "anonymous": false,
      "inputs": [
        {
          "indexed": false,
          "internalType": "uint256",
          "name": "requestId",
          "type": "uint256"
        }
      ],
      "name": "DocumentRejected",
      "type": "event"
    },
    {
      "anonymous": false,
      "inputs": [
        {
          "indexed": false,
          "internalType": "uint256",
          "name": "requestId",
          "type": "uint256"
        },
        {
          "indexed": true,
          "internalType": "address",
          "name": "user",
          "type": "address"
        }
      ],
      "name": "DocumentRequested",
      "type": "event"
    },
    {
      "anonymous": false,
      "inputs": [
        {
          "indexed": false,
          "internalType": "uint256",
          "name": "_tokenId",
          "type": "uint256"
        }
      ],
      "name": "MetadataUpdate",
      "type": "event"
    },
    {
      "anonymous": false,
      "inputs": [
        {
          "indexed": true,
          "internalType": "address",
          "name": "previousOwner",
          "type": "address"
        },
        {
          "indexed": true,
          "internalType": "address",
          "name": "newOwner",
          "type": "address"
        }
      ],
      "name": "OwnershipTransferred",
      "type": "event"
    },
    {
      "anonymous": false,
      "inputs": [
        {
          "indexed": true,
          "internalType": "address",
          "name": "from",
          "type": "address"
        },
        {
          "indexed": true,
          "internalType": "address",
          "name": "to",
          "type": "address"
        },
        {
          "indexed": true,
          "internalType": "uint256",
          "name": "tokenId",
          "type": "uint256"
        }
      ],
      "name": "Transfer",
      "type": "event"
    },
    {
      "inputs": [
        {
          "internalType": "address",
          "name": "to",
          "type": "address"
        },
        {
          "internalType": "uint256",
          "name": "tokenId",
          "type": "uint256"
        }
      ],
      "name": "approve",
      "outputs": [],
      "stateMutability": "nonpayable",
      "type": "function"
    },
    {
      "inputs": [
        {
          "internalType": "uint256",
          "name": "_requestId",
          "type": "uint256"
        },
        {
          "internalType": "string",
          "name": "_tokenURI",
          "type": "string"
        }
      ],
      "name": "approveDocument",
      "outputs": [],
      "stateMutability": "nonpayable",
      "type": "function"
    },
    {
      "inputs": [
        {
          "internalType": "address",
          "name": "owner",
          "type": "address"
        }
      ],
      "name": "balanceOf",
      "outputs": [
        {
          "internalType": "uint256",
          "name": "",
          "type": "uint256"
        }
      ],
      "stateMutability": "view",
      "type": "function"
    },
    {
      "inputs": [
        {
          "internalType": "uint256",
          "name": "tokenId",
          "type": "uint256"
        }
      ],
      "name": "getApproved",
      "outputs": [
        {
          "internalType": "address",
          "name": "",
          "type": "address"
        }
      ],
      "stateMutability": "view",
      "type": "function"
    },
    {
      "inputs": [
        {
          "internalType": "uint256",
          "name": "requestId",
          "type": "uint256"
        }
      ],
      "name": "getRequestDetails",
      "outputs": [
        {
          "internalType": "address",
          "name": "",
          "type": "address"
        },
        {
          "internalType": "string",
          "name": "",
          "type": "string"
        },
        {
          "internalType": "string",
          "name": "",
          "type": "string"
        },
        {
          "internalType": "string",
          "name": "",
          "type": "string"
        },
        {
          "internalType": "string",
          "name": "",
          "type": "string"
        },
        {
          "internalType": "string",
          "name": "",
          "type": "string"
        },
        {
          "internalType": "string",
          "name": "",
          "type": "string"
        },
        {
          "internalType": "string",
          "name": "",
          "type": "string"
        },
        {
          "internalType": "enum DocumentNFT.RequestStatus",
          "name": "",
          "type": "uint8"
        },
        {
          "internalType": "uint256",
          "name": "",
          "type": "uint256"
        }
      ],
      "stateMutability": "view",
      "type": "function"
    },
    {
      "inputs": [
        {
          "internalType": "address",
          "name": "user",
          "type": "address"
        }
      ],
      "name": "getUserRequests",
      "outputs": [
        {
          "internalType": "uint256[]",
          "name": "",
          "type": "uint256[]"
        }
      ],
      "stateMutability": "view",
      "type": "function"
    },
    {
      "inputs": [
        {
          "internalType": "address",
          "name": "owner",
          "type": "address"
        },
        {
          "internalType": "address",
          "name": "operator",
          "type": "address"
        }
      ],
      "name": "isApprovedForAll",
      "outputs": [
        {
          "internalType": "bool",
          "name": "",
          "type": "bool"
        }
      ],
      "stateMutability": "view",
      "type": "function"
    },
    {
      "inputs": [],
      "name": "name",
      "outputs": [
        {
          "internalType": "string",
          "name": "",
          "type": "string"
        }
      ],
      "stateMutability": "view",
      "type": "function"
    },
    {
      "inputs": [],
      "name": "owner",
      "outputs": [
        {
          "internalType": "address",
          "name": "",
          "type": "address"
        }
      ],
      "stateMutability": "view",
      "type": "function"
    },
    {
      "inputs": [
        {
          "internalType": "uint256",
          "name": "tokenId",
          "type": "uint256"
        }
      ],
      "name": "ownerOf",
      "outputs": [
        {
          "internalType": "address",
          "name": "",
          "type": "address"
        }
      ],
      "stateMutability": "view",
      "type": "function"
    },
    {
      "inputs": [
        {
          "internalType": "uint256",
          "name": "_requestId",
          "type": "uint256"
        }
      ],
      "name": "rejectDocument",
      "outputs": [],
      "stateMutability": "nonpayable",
      "type": "function"
    },
    {
      "inputs": [],
      "name": "renounceOwnership",
      "outputs": [],
      "stateMutability": "nonpayable",
      "type": "function"
    },
    {
      "inputs": [
        {
          "internalType": "string",
          "name": "_docType",
          "type": "string"
        },
        {
          "internalType": "string",
          "name": "_name",
          "type": "string"
        },
        {
          "internalType": "string",
          "name": "_dob",
          "type": "string"
        },
        {
          "internalType": "string",
          "name": "_gender",
          "type": "string"
        },
        {
          "internalType": "string",
          "name": "_contact",
          "type": "string"
        },
        {
          "internalType": "string",
          "name": "_addressDetails",
          "type": "string"
        },
        {
          "internalType": "string",
          "name": "_ipfsHash",
          "type": "string"
        }
      ],
      "name": "requestDocument",
      "outputs": [],
      "stateMutability": "nonpayable",
      "type": "function"
    },
    {
      "inputs": [
        {
          "internalType": "uint256",
          "name": "",
          "type": "uint256"
        }
      ],
      "name": "requests",
      "outputs": [
        {
          "internalType": "address",
          "name": "user",
          "type": "address"
        },
        {
          "internalType": "string",
          "name": "docType",
          "type": "string"
        },
        {
          "internalType": "string",
          "name": "name",
          "type": "string"
        },
        {
          "internalType": "string",
          "name": "dob",
          "type": "string"
        },
        {
          "internalType": "string",
          "name": "gender",
          "type": "string"
        },
        {
          "internalType": "string",
          "name": "contact",
          "type": "string"
        },
        {
          "internalType": "string",
          "name": "addressDetails",
          "type": "string"
        },
        {
          "internalType": "string",
          "name": "ipfsHash",
          "type": "string"
        },
        {
          "internalType": "enum DocumentNFT.RequestStatus",
          "name": "status",
          "type": "uint8"
        },
        {
          "internalType": "uint256",
          "name": "tokenId",
          "type": "uint256"
        }
      ],
      "stateMutability": "view",
      "type": "function"
    },
    {
      "inputs": [
        {
          "internalType": "address",
          "name": "from",
          "type": "address"
        },
        {
          "internalType": "address",
          "name": "to",
          "type": "address"
        },
        {
          "internalType": "uint256",
          "name": "tokenId",
          "type": "uint256"
        }
      ],
      "name": "safeTransferFrom",
      "outputs": [],
      "stateMutability": "nonpayable",
      "type": "function"
    },
    {
      "inputs": [
        {
          "internalType": "address",
          "name": "from",
          "type": "address"
        },
        {
          "internalType": "address",
          "name": "to",
          "type": "address"
        },
        {
          "internalType": "uint256",
          "name": "tokenId",
          "type": "uint256"
        },
        {
          "internalType": "bytes",
          "name": "data",
          "type": "bytes"
        }
      ],
      "name": "safeTransferFrom",
      "outputs": [],
      "stateMutability": "nonpayable",
      "type": "function"
    },
    {
      "inputs": [
        {
          "internalType": "address",
          "name": "operator",
          "type": "address"
        },
        {
          "internalType": "bool",
          "name": "approved",
          "type": "bool"
        }
      ],
      "name": "setApprovalForAll",
      "outputs": [],
      "stateMutability": "nonpayable",
      "type": "function"
    },
    {
      "inputs": [
        {
          "internalType": "bytes4",
          "name": "interfaceId",
          "type": "bytes4"
        }
      ],
      "name": "supportsInterface",
      "outputs": [
        {
          "internalType": "bool",
          "name": "",
          "type": "bool"
        }
      ],
      "stateMutability": "view",
      "type": "function"
    },
    {
      "inputs": [],
      "name": "symbol",
      "outputs": [
        {
          "internalType": "string",
          "name": "",
          "type": "string"
        }
      ],
      "stateMutability": "view",
      "type": "function"
    },
    {
      "inputs": [],
      "name": "tokenCounter",
      "outputs": [
        {
          "internalType": "uint256",
          "name": "",
          "type": "uint256"
        }
      ],
      "stateMutability": "view",
      "type": "function"
    },
    {
      "inputs": [
        {
          "internalType": "uint256",
          "name": "tokenId",
          "type": "uint256"
        }
      ],
      "name": "tokenURI",
      "outputs": [
        {
          "internalType": "string",
          "name": "",
          "type": "string"
        }
      ],
      "stateMutability": "view",
      "type": "function"
    },
    {
      "inputs": [
        {
          "internalType": "address",
          "name": "from",
          "type": "address"
        },
        {
          "internalType": "address",
          "name": "to",
          "type": "address"
        },
        {
          "internalType": "uint256",
          "name": "tokenId",
          "type": "uint256"
        }
      ],
      "name": "transferFrom",
      "outputs": [],
      "stateMutability": "nonpayable",
      "type": "function"
    },
    {
      "inputs": [
        {
          "internalType": "address",
          "name": "newOwner",
          "type": "address"
        }
      ],
      "name": "transferOwnership",
      "outputs": [],
      "stateMutability": "nonpayable",
      "type": "function"
    },
    {
      "inputs": [
        {
          "internalType": "address",
          "name": "",
          "type": "address"
        },
        {
          "internalType": "uint256",
          "name": "",
          "type": "uint256"
        }
      ],
      "name": "userRequests",
      "outputs": [
        {
          "internalType": "uint256",
          "name": "",
          "type": "uint256"
        }
      ],
      "stateMutability": "view",
      "type": "function"
    }
  ],
  "bytecode": "0x60806040523480156200001157600080fd5b50336040518060400160405280600b81526020017f446f63756d656e744e46540000000000000000000000000000000000000000008152506040518060400160405280600381526020017f414144000000000000000000000000000000000000000000000000000000000081525081600090816200009091906200047a565b508060019081620000a291906200047a565b505050600073ffffffffffffffffffffffffffffffffffffffff168173ffffffffffffffffffffffffffffffffffffffff16036200011a5760006040517f1e4fbdf7000000000000000000000000000000000000000000000000000000008152600401620001119190620005a6565b60405180910390fd5b6200012b816200013a60201b60201c565b506001600881905550620005c3565b6000600760009054906101000a900473ffffffffffffffffffffffffffffffffffffffff16905081600760006101000a81548173ffffffffffffffffffffffffffffffffffffffff021916908373ffffffffffffffffffffffffffffffffffffffff1602179055508173ffffffffffffffffffffffffffffffffffffffff168173ffffffffffffffffffffffffffffffffffffffff167f8be0079c531659141344cd1fd0a4f28419497f9722a3daafe3b4186f6b6457e060405160405180910390a35050565b600081519050919050565b7f4e487b7100000000000000000000000000000000000000000000000000000000600052604160045260246000fd5b7f4e487b7100000000000000000000000000000000000000000000000000000000600052602260045260246000fd5b600060028204905060018216806200028257607f821691505b6020821081036200029857620002976200023a565b5b50919050565b60008190508160005260206000209050919050565b60006020601f8301049050919050565b600082821b905092915050565b600060088302620003027fffffffffffffffffffffffffffffffffffffffffffffffffffffffffffffffff82620002c3565b6200030e8683620002c3565b95508019841693508086168417925050509392505050565b6000819050919050565b6000819050919050565b60006200035b620003556200034f8462000326565b62000330565b62000326565b9050919050565b6000819050919050565b62000377836200033a565b6200038f620003868262000362565b848454620002d0565b825550505050565b600090565b620003a662000397565b620003b38184846200036c565b505050565b5b81811015620003db57620003cf6000826200039c565b600181019050620003b9565b5050565b601f8211156200042a57620003f4816200029e565b620003ff84620002b3565b810160208510156200040f578190505b620004276200041e85620002b3565b830182620003b8565b50505b505050565b600082821c905092915050565b60006200044f600019846008026200042f565b1980831691505092915050565b60006200046a83836200043c565b9150826002028217905092915050565b620004858262000200565b67ffffffffffffffff811115620004a157620004a06200020b565b5b620004ad825462000269565b620004ba828285620003df565b600060209050601f831160018114620004f25760008415620004dd578287015190505b620004e985826200045c565b86555062000559565b601f19841662000502866200029e565b60005b828110156200052c5784890151825560018201915060208501945060208101905062000505565b868310156200054c578489015162000548601f8916826200043c565b8355505b6001600288020188555050505b505050505050565b600073ffffffffffffffffffffffffffffffffffffffff82169050919050565b60006200058e8262000561565b9050919050565b620005a08162000581565b82525050565b6000602082019050620005bd600083018462000595565b92915050565b613f3b80620005d36000396000f3fe608060405234801561001057600080fd5b50600436106101585760003560e01c80638da5cb5b116100c3578063c87b56dd1161007c578063c87b56dd146103de578063d082e3811461040e578063e7c9a7701461042c578063e985e9c514610448578063f2fde38b14610478578063f34d4c631461049457610158565b80638da5cb5b1461031e57806395d89b411461033c578063a1b10f211461035a578063a22cb46514610376578063b337cf7414610392578063b88d4fde146103c257610158565b806342842e0e1161011557806342842e0e146102435780636352211e1461025f57806370a082311461028f578063715018a6146102bf5780637b10becb146102c957806381d12c58146102e557610158565b806301ffc9a71461015d57806306fdde031461018d578063081812fc146101ab578063095ea7b3146101db57806323b872dd146101f7578063263cb6b614610213575b600080fd5b61017760048036038101906101729190612e94565b6104cd565b6040516101849190612edc565b60405180910390f35b61019561052e565b6040516101a29190612f87565b60405180910390f35b6101c560048036038101906101c09190612fdf565b6105c0565b6040516101d2919061304d565b60405180910390f35b6101f560048036038101906101f09190613094565b6105dc565b005b610211600480360381019061020c91906130d4565b6105f2565b005b61022d60048036038101906102289190613094565b6106f4565b60405161023a9190613136565b60405180910390f35b61025d600480360381019061025891906130d4565b610725565b005b61027960048036038101906102749190612fdf565b610745565b604051610286919061304d565b60405180910390f35b6102a960048036038101906102a49190613151565b610757565b6040516102b69190613136565b60405180910390f35b6102c7610811565b005b6102e360048036038101906102de9190612fdf565b610825565b005b6102ff60048036038101906102fa9190612fdf565b610924565b6040516103159a999897969594939291906131f5565b60405180910390f35b610326610d5d565b604051610333919061304d565b60405180910390f35b610344610d87565b6040516103519190612f87565b60405180910390f35b610374600480360381019061036f91906133f7565b610e19565b005b610390600480360381019061038b919061347f565b6111bf565b005b6103ac60048036038101906103a79190613151565b6111d5565b6040516103b9919061357d565b60405180910390f35b6103dc60048036038101906103d79190613640565b61126c565b005b6103f860048036038101906103f39190612fdf565b611291565b6040516104059190612f87565b60405180910390f35b6104166113a4565b6040516104239190613136565b60405180910390f35b610446600480360381019061044191906136c3565b6113aa565b005b610462600480360381019061045d9190613829565b61177b565b60405161046f9190612edc565b60405180910390f35b610492600480360381019061048d9190613151565b61180f565b005b6104ae60048036038101906104a99190612fdf565b611895565b6040516104c49a999897969594939291906131f5565b60405180910390f35b6000634906490660e01b7bffffffffffffffffffffffffffffffffffffffffffffffffffffffff1916827bffffffffffffffffffffffffffffffffffffffffffffffffffffffff19161480610527575061052682611db7565b5b9050919050565b60606000805461053d90613898565b80601f016020809104026020016040519081016040528092919081815260200182805461056990613898565b80156105b65780601f1061058b576101008083540402835291602001916105b6565b820191906000526020600020905b81548152906001019060200180831161059957829003601f168201915b5050505050905090565b60006105cb82611e99565b506105d582611f21565b9050919050565b6105ee82826105e9611f5e565b611f66565b5050565b600073ffffffffffffffffffffffffffffffffffffffff168273ffffffffffffffffffffffffffffffffffffffff16036106645760006040517f64a0ae9200000000000000000000000000000000000000000000000000000000815260040161065b919061304d565b60405180910390fd5b60006106788383610673611f5e565b611f78565b90508373ffffffffffffffffffffffffffffffffffffffff168173ffffffffffffffffffffffffffffffffffffffff16146106ee578382826040517f64283d7b0000000000000000000000000000000000000000000000000000000081526004016106e5939291906138c9565b60405180910390fd5b50505050565b600a602052816000526040600020818154811061071057600080fd5b90600052602060002001600091509150505481565b6107408383836040518060200160405280600081525061126c565b505050565b600061075082611e99565b9050919050565b60008073ffffffffffffffffffffffffffffffffffffffff168273ffffffffffffffffffffffffffffffffffffffff16036107ca5760006040517f89c62b640000000000000000000000000000000000000000000000000000000081526004016107c1919061304d565b60405180910390fd5b600360008373ffffffffffffffffffffffffffffffffffffffff1673ffffffffffffffffffffffffffffffffffffffff168152602001908152602001600020549050919050565b610819612192565b6108236000612219565b565b61082d612192565b6000600960008381526020019081526020016000209050600060028111156108585761085761317e565b5b8160080160009054906101000a900460ff16600281111561087c5761087b61317e565b5b146108bc576040517f08c379a00000000000000000000000000000000000000000000000000000000081526004016108b39061394c565b60405180910390fd5b60028160080160006101000a81548160ff021916908360028111156108e4576108e361317e565b5b02179055507f9b7d442dd67c77ac8ed186e072b963a6229576f85973bfbac316aa1ccf4ea595826040516109189190613136565b60405180910390a15050565b60096020528060005260406000206000915090508060000160009054906101000a900473ffffffffffffffffffffffffffffffffffffffff169080600101805461096d90613898565b80601f016020809104026020016040519081016040528092919081815260200182805461099990613898565b80156109e65780601f106109bb576101008083540402835291602001916109e6565b820191906000526020600020905b8154815290600101906020018083116109c957829003601f168201915b5050505050908060020180546109fb90613898565b80601f0160208091040260200160405190810160405280929190818152602001828054610a2790613898565b8015610a745780601f10610a4957610100808354040283529160200191610a74565b820191906000526020600020905b815481529060010190602001808311610a5757829003601f168201915b505050505090806003018054610a8990613898565b80601f0160208091040260200160405190810160405280929190818152602001828054610ab590613898565b8015610b025780601f10610ad757610100808354040283529160200191610b02565b820191906000526020600020905b815481529060010190602001808311610ae557829003601f168201915b505050505090806004018054610b1790613898565b80601f0160208091040260200160405190810160405280929190818152602001828054610b4390613898565b8015610b905780601f10610b6557610100808354040283529160200191610b90565b820191906000526020600020905b815481529060010190602001808311610b7357829003601f168201915b505050505090806005018054610ba590613898565b80601f0160208091040260200160405190810160405280929190818152602001828054610bd190613898565b8015610c1e5780601f10610bf357610100808354040283529160200191610c1e565b820191906000526020600020905b815481529060010190602001808311610c0157829003601f168201915b505050505090806006018054610c3390613898565b80601f0160208091040260200160405190810160405280929190818152602001828054610c5f90613898565b8015610cac5780601f10610c8157610100808354040283529160200191610cac565b820191906000526020600020905b815481529060010190602001808311610c8f57829003601f168201915b505050505090806007018054610cc190613898565b80601f0160208091040260200160405190810160405280929190818152602001828054610ced90613898565b8015610d3a5780601f10610d0f57610100808354040283529160200191610d3a565b820191906000526020600020905b815481529060010190602001808311610d1d57829003601f168201915b5050505050908060080160009054906101000a900460ff1690806009015490508a565b6000600760009054906101000a900473ffffffffffffffffffffffffffffffffffffffff16905090565b606060018054610d9690613898565b80601f0160208091040260200160405190810160405280929190818152602001828054610dc290613898565b8015610e0f5780601f10610de457610100808354040283529160200191610e0f565b820191906000526020600020905b815481529060010190602001808311610df257829003601f168201915b5050505050905090565b610e21612192565b600060096000848152602001908152602001600020905060006002811115610e4c57610e4b61317e565b5b8160080160009054906101000a900460ff166002811115610e7057610e6f61317e565b5b14610eb0576040517f08c379a0000000000000000000000000000000000000000000000000000000008152600401610ea79061394c565b60405180910390fd5b6000600a60008360000160009054906101000a900473ffffffffffffffffffffffffffffffffffffffff1673ffffffffffffffffffffffffffffffffffffffff1673ffffffffffffffffffffffffffffffffffffffff168152602001908152602001600020805480602002602001604051908101604052809291908181526020018280548015610f5f57602002820191906000526020600020905b815481526020019060010190808311610f4b575b5050505050905060005b815181101561110b576000828281518110610f8757610f8661396c565b5b60200260200101519050858103610f9e57506110f8565b600060096000838152602001908152602001600020905060016002811115610fc957610fc861317e565b5b8160080160009054906101000a900460ff166002811115610fed57610fec61317e565b5b148061102e5750600060028111156110085761100761317e565b5b8160080160009054906101000a900460ff16600281111561102c5761102b61317e565b5b145b801561108b5750846001016040516020016110499190613a3e565b60405160208183030381529060405280519060200120816001016040516020016110739190613a3e565b60405160208183030381529060405280519060200120145b156110f55760028160080160006101000a81548160ff021916908360028111156110b8576110b761317e565b5b02179055507f9b7d442dd67c77ac8ed186e072b963a6229576f85973bfbac316aa1ccf4ea595826040516110ec9190613136565b60405180910390a15b50505b808061110390613a84565b915050610f69565b50600084905061113f8360000160009054906101000a900473ffffffffffffffffffffffffffffffffffffffff16826122df565b61114981856122fd565b60018360080160006101000a81548160ff021916908360028111156111715761117061317e565b5b02179055508083600901819055507f9021cd00b1977b91ce477b78754e76b2ab8bd9b2a41a0552c4f8eb1d7f8dc2b785826040516111b0929190613acc565b60405180910390a15050505050565b6111d16111ca611f5e565b8383612359565b5050565b6060600a60008373ffffffffffffffffffffffffffffffffffffffff1673ffffffffffffffffffffffffffffffffffffffff16815260200190815260200160002080548060200260200160405190810160405280929190818152602001828054801561126057602002820191906000526020600020905b81548152602001906001019080831161124c575b50505050509050919050565b6112778484846105f2565b61128b611282611f5e565b858585856124c8565b50505050565b606061129c82611e99565b5060006006600084815260200190815260200160002080546112bd90613898565b80601f01602080910402602001604051908101604052809291908181526020018280546112e990613898565b80156113365780601f1061130b57610100808354040283529160200191611336565b820191906000526020600020905b81548152906001019060200180831161131957829003601f168201915b505050505090506000611347612679565b9050600081510361135c57819250505061139f565b600082511115611391578082604051602001611379929190613b26565b6040516020818303038152906040529250505061139f565b61139a84612690565b925050505b919050565b60085481565b6000600a60003373ffffffffffffffffffffffffffffffffffffffff1673ffffffffffffffffffffffffffffffffffffffff16815260200190815260200160002080548060200260200160405190810160405280929190818152602001828054801561143557602002820191906000526020600020905b815481526020019060010190808311611421575b5050505050905060005b815181101561159057600082828151811061145d5761145c61396c565b5b602002602001015190506000600960008381526020019081526020016000209050600060028111156114925761149161317e565b5b8160080160009054906101000a900460ff1660028111156114b6576114b561317e565b5b14801561151157508a6040516020016114cf9190613b4a565b60405160208183030381529060405280519060200120816001016040516020016114f99190613a3e565b60405160208183030381529060405280519060200120145b1561157b5760028160080160006101000a81548160ff0219169083600281111561153e5761153d61317e565b5b02179055507f9b7d442dd67c77ac8ed186e072b963a6229576f85973bfbac316aa1ccf4ea595826040516115729190613136565b60405180910390a15b5050808061158890613a84565b91505061143f565b506000600860008154809291906115a690613a84565b9190505590506000600960008381526020019081526020016000209050338160000160006101000a81548173ffffffffffffffffffffffffffffffffffffffff021916908373ffffffffffffffffffffffffffffffffffffffff160217905550898160010190816116179190613cf8565b50888160020190816116299190613cf8565b508781600301908161163b9190613cf8565b508681600401908161164d9190613cf8565b508581600501908161165f9190613cf8565b50848160060190816116719190613cf8565b50838160070190816116839190613cf8565b5060008160080160006101000a81548160ff021916908360028111156116ac576116ab61317e565b5b021790555060008160090181905550600a60003373ffffffffffffffffffffffffffffffffffffffff1673ffffffffffffffffffffffffffffffffffffffff1681526020019081526020016000208290806001815401808255809150506001900390600052602060002001600090919091909150553373ffffffffffffffffffffffffffffffffffffffff167fcf22c3b689a8ab83848272c09c41b46ff3bba40bf90374fd1d85cdc7fe526070836040516117679190613136565b60405180910390a250505050505050505050565b6000600560008473ffffffffffffffffffffffffffffffffffffffff1673ffffffffffffffffffffffffffffffffffffffff16815260200190815260200160002060008373ffffffffffffffffffffffffffffffffffffffff1673ffffffffffffffffffffffffffffffffffffffff16815260200190815260200160002060009054906101000a900460ff16905092915050565b611817612192565b600073ffffffffffffffffffffffffffffffffffffffff168173ffffffffffffffffffffffffffffffffffffffff16036118895760006040517f1e4fbdf7000000000000000000000000000000000000000000000000000000008152600401611880919061304d565b60405180910390fd5b61189281612219565b50565b600060608060608060608060606000806000600960008d8152602001908152602001600020604051806101400160405290816000820160009054906101000a900473ffffffffffffffffffffffffffffffffffffffff1673ffffffffffffffffffffffffffffffffffffffff1673ffffffffffffffffffffffffffffffffffffffff16815260200160018201805461192c90613898565b80601f016020809104026020016040519081016040528092919081815260200182805461195890613898565b80156119a55780601f1061197a576101008083540402835291602001916119a5565b820191906000526020600020905b81548152906001019060200180831161198857829003601f168201915b505050505081526020016002820180546119be90613898565b80601f01602080910402602001604051908101604052809291908181526020018280546119ea90613898565b8015611a375780601f10611a0c57610100808354040283529160200191611a37565b820191906000526020600020905b815481529060010190602001808311611a1a57829003601f168201915b50505050508152602001600382018054611a5090613898565b80601f0160208091040260200160405190810160405280929190818152602001828054611a7c90613898565b8015611ac95780601f10611a9e57610100808354040283529160200191611ac9565b820191906000526020600020905b815481529060010190602001808311611aac57829003601f168201915b50505050508152602001600482018054611ae290613898565b80601f0160208091040260200160405190810160405280929190818152602001828054611b0e90613898565b8015611b5b5780601f10611b3057610100808354040283529160200191611b5b565b820191906000526020600020905b815481529060010190602001808311611b3e57829003601f168201915b50505050508152602001600582018054611b7490613898565b80601f0160208091040260200160405190810160405280929190818152602001828054611ba090613898565b8015611bed5780601f10611bc257610100808354040283529160200191611bed565b820191906000526020600020905b815481529060010190602001808311611bd057829003601f168201915b50505050508152602001600682018054611c0690613898565b80601f0160208091040260200160405190810160405280929190818152602001828054611c3290613898565b8015611c7f5780601f10611c5457610100808354040283529160200191611c7f565b820191906000526020600020905b815481529060010190602001808311611c6257829003601f168201915b50505050508152602001600782018054611c9890613898565b80601f0160208091040260200160405190810160405280929190818152602001828054611cc490613898565b8015611d115780601f10611ce657610100808354040283529160200191611d11565b820191906000526020600020905b815481529060010190602001808311611cf457829003601f168201915b505050505081526020016008820160009054906101000a900460ff166002811115611d3f57611d3e61317e565b5b6002811115611d5157611d5061317e565b5b81526020016009820154815250509050806000015181602001518260400151836060015184608001518560a001518660c001518760e001518861010001518961012001519a509a509a509a509a509a509a509a509a509a50509193959799509193959799565b60007f80ac58cd000000000000000000000000000000000000000000000000000000007bffffffffffffffffffffffffffffffffffffffffffffffffffffffff1916827bffffffffffffffffffffffffffffffffffffffffffffffffffffffff19161480611e8257507f5b5e139f000000000000000000000000000000000000000000000000000000007bffffffffffffffffffffffffffffffffffffffffffffffffffffffff1916827bffffffffffffffffffffffffffffffffffffffffffffffffffffffff1916145b80611e925750611e91826126f9565b5b9050919050565b600080611ea583612763565b9050600073ffffffffffffffffffffffffffffffffffffffff168173ffffffffffffffffffffffffffffffffffffffff1603611f1857826040517f7e273289000000000000000000000000000000000000000000000000000000008152600401611f0f9190613136565b60405180910390fd5b80915050919050565b60006004600083815260200190815260200160002060009054906101000a900473ffffffffffffffffffffffffffffffffffffffff169050919050565b600033905090565b611f7383838360016127a0565b505050565b600080611f8484612763565b9050600073ffffffffffffffffffffffffffffffffffffffff168373ffffffffffffffffffffffffffffffffffffffff1614611fc657611fc5818486612965565b5b600073ffffffffffffffffffffffffffffffffffffffff168173ffffffffffffffffffffffffffffffffffffffff1614612057576120086000856000806127a0565b6001600360008373ffffffffffffffffffffffffffffffffffffffff1673ffffffffffffffffffffffffffffffffffffffff168152602001908152602001600020600082825403925050819055505b600073ffffffffffffffffffffffffffffffffffffffff168573ffffffffffffffffffffffffffffffffffffffff16146120da576001600360008773ffffffffffffffffffffffffffffffffffffffff1673ffffffffffffffffffffffffffffffffffffffff168152602001908152602001600020600082825401925050819055505b846002600086815260200190815260200160002060006101000a81548173ffffffffffffffffffffffffffffffffffffffff021916908373ffffffffffffffffffffffffffffffffffffffff160217905550838573ffffffffffffffffffffffffffffffffffffffff168273ffffffffffffffffffffffffffffffffffffffff167fddf252ad1be2c89b69c2b068fc378daa952ba7f163c4a11628f55a4df523b3ef60405160405180910390a4809150509392505050565b61219a611f5e565b73ffffffffffffffffffffffffffffffffffffffff166121b8610d5d565b73ffffffffffffffffffffffffffffffffffffffff1614612217576121db611f5e565b6040517f118cdaa700000000000000000000000000000000000000000000000000000000815260040161220e919061304d565b60405180910390fd5b565b6000600760009054906101000a900473ffffffffffffffffffffffffffffffffffffffff16905081600760006101000a81548173ffffffffffffffffffffffffffffffffffffffff021916908373ffffffffffffffffffffffffffffffffffffffff1602179055508173ffffffffffffffffffffffffffffffffffffffff168173ffffffffffffffffffffffffffffffffffffffff167f8be0079c531659141344cd1fd0a4f28419497f9722a3daafe3b4186f6b6457e060405160405180910390a35050565b6122f9828260405180602001604052806000815250612a29565b5050565b8060066000848152602001908152602001600020908161231d9190613cf8565b507ff8e1a15aba9398e019f0b49df1a4fde98ee17ae345cb5f6b5e2c27f5033e8ce78260405161234d9190613136565b60405180910390a15050565b600073ffffffffffffffffffffffffffffffffffffffff168273ffffffffffffffffffffffffffffffffffffffff16036123ca57816040517f5b08ba180000000000000000000000000000000000000000000000000000000081526004016123c1919061304d565b60405180910390fd5b80600560008573ffffffffffffffffffffffffffffffffffffffff1673ffffffffffffffffffffffffffffffffffffffff16815260200190815260200160002060008473ffffffffffffffffffffffffffffffffffffffff1673ffffffffffffffffffffffffffffffffffffffff16815260200190815260200160002060006101000a81548160ff0219169083151502179055508173ffffffffffffffffffffffffffffffffffffffff168373ffffffffffffffffffffffffffffffffffffffff167f17307eab39ab6107e8899845ad3d59bd9653f200f220920489ca2b5937696c31836040516124bb9190612edc565b60405180910390a3505050565b60008373ffffffffffffffffffffffffffffffffffffffff163b1115612672578273ffffffffffffffffffffffffffffffffffffffff1663150b7a02868685856040518563ffffffff1660e01b81526004016125279493929190613e1f565b6020604051808303816000875af192505050801561256357506040513d601f19601f820116820180604052508101906125609190613e80565b60015b6125e7573d8060008114612593576040519150601f19603f3d011682016040523d82523d6000602084013e612598565b606091505b5060008151036125df57836040517f64a0ae920000000000000000000000000000000000000000000000000000000081526004016125d6919061304d565b60405180910390fd5b805181602001fd5b63150b7a0260e01b7bffffffffffffffffffffffffffffffffffffffffffffffffffffffff1916817bffffffffffffffffffffffffffffffffffffffffffffffffffffffff19161461267057836040517f64a0ae92000000000000000000000000000000000000000000000000000000008152600401612667919061304d565b60405180910390fd5b505b5050505050565b606060405180602001604052806000815250905090565b606061269b82611e99565b5060006126a6612679565b905060008151116126c657604051806020016040528060008152506126f1565b806126d084612a4d565b6040516020016126e1929190613b26565b6040516020818303038152906040525b915050919050565b60007f01ffc9a7000000000000000000000000000000000000000000000000000000007bffffffffffffffffffffffffffffffffffffffffffffffffffffffff1916827bffffffffffffffffffffffffffffffffffffffffffffffffffffffff1916149050919050565b60006002600083815260200190815260200160002060009054906101000a900473ffffffffffffffffffffffffffffffffffffffff169050919050565b80806127d95750600073ffffffffffffffffffffffffffffffffffffffff168273ffffffffffffffffffffffffffffffffffffffff1614155b1561290d5760006127e984611e99565b9050600073ffffffffffffffffffffffffffffffffffffffff168373ffffffffffffffffffffffffffffffffffffffff161415801561285457508273ffffffffffffffffffffffffffffffffffffffff168173ffffffffffffffffffffffffffffffffffffffff1614155b80156128675750612865818461177b565b155b156128a957826040517fa9fbf51f0000000000000000000000000000000000000000000000000000000081526004016128a0919061304d565b60405180910390fd5b811561290b57838573ffffffffffffffffffffffffffffffffffffffff168273ffffffffffffffffffffffffffffffffffffffff167f8c5be1e5ebec7d5bd14f71427d1e84f3dd0314c0f7b2291e5b200ac8c7c3b92560405160405180910390a45b505b836004600085815260200190815260200160002060006101000a81548173ffffffffffffffffffffffffffffffffffffffff021916908373ffffffffffffffffffffffffffffffffffffffff16021790555050505050565b612970838383612b1b565b612a2457600073ffffffffffffffffffffffffffffffffffffffff168373ffffffffffffffffffffffffffffffffffffffff16036129e557806040517f7e2732890000000000000000000000000000000000000000000000000000000081526004016129dc9190613136565b60405180910390fd5b81816040517f177e802f000000000000000000000000000000000000000000000000000000008152600401612a1b929190613ead565b60405180910390fd5b505050565b612a338383612bdc565b612a48612a3e611f5e565b60008585856124c8565b505050565b606060006001612a5c84612cd5565b01905060008167ffffffffffffffff811115612a7b57612a7a6132cc565b5b6040519080825280601f01601f191660200182016040528015612aad5781602001600182028036833780820191505090505b509050600082602001820190505b600115612b10578080600190039150507f3031323334353637383961626364656600000000000000000000000000000000600a86061a8153600a8581612b0457612b03613ed6565b5b04945060008503612abb575b819350505050919050565b60008073ffffffffffffffffffffffffffffffffffffffff168373ffffffffffffffffffffffffffffffffffffffff1614158015612bd357508273ffffffffffffffffffffffffffffffffffffffff168473ffffffffffffffffffffffffffffffffffffffff161480612b945750612b93848461177b565b5b80612bd257508273ffffffffffffffffffffffffffffffffffffffff16612bba83611f21565b73ffffffffffffffffffffffffffffffffffffffff16145b5b90509392505050565b600073ffffffffffffffffffffffffffffffffffffffff168273ffffffffffffffffffffffffffffffffffffffff1603612c4e5760006040517f64a0ae92000000000000000000000000000000000000000000000000000000008152600401612c45919061304d565b60405180910390fd5b6000612c5c83836000611f78565b9050600073ffffffffffffffffffffffffffffffffffffffff168173ffffffffffffffffffffffffffffffffffffffff1614612cd05760006040517f73c6ac6e000000000000000000000000000000000000000000000000000000008152600401612cc7919061304d565b60405180910390fd5b505050565b600080600090507a184f03e93ff9f4daa797ed6e38ed64bf6a1f0100000000000000008310612d33577a184f03e93ff9f4daa797ed6e38ed64bf6a1f0100000000000000008381612d2957612d28613ed6565b5b0492506040810190505b6d04ee2d6d415b85acef81000000008310612d70576d04ee2d6d415b85acef81000000008381612d6657612d65613ed6565b5b0492506020810190505b662386f26fc100008310612d9f57662386f26fc100008381612d9557612d94613ed6565b5b0492506010810190505b6305f5e1008310612dc8576305f5e1008381612dbe57612dbd613ed6565b5b0492506008810190505b6127108310612ded576127108381612de357612de2613ed6565b5b0492506004810190505b60648310612e105760648381612e0657612e05613ed6565b5b0492506002810190505b600a8310612e1f576001810190505b80915050919050565b6000604051905090565b600080fd5b600080fd5b60007fffffffff0000000000000000000000000000000000000000000000000000000082169050919050565b612e7181612e3c565b8114612e7c57600080fd5b50565b600081359050612e8e81612e68565b92915050565b600060208284031215612eaa57612ea9612e32565b5b6000612eb884828501612e7f565b91505092915050565b60008115159050919050565b612ed681612ec1565b82525050565b6000602082019050612ef16000830184612ecd565b92915050565b600081519050919050565b600082825260208201905092915050565b60005b83811015612f31578082015181840152602081019050612f16565b60008484015250505050565b6000601f19601f8301169050919050565b6000612f5982612ef7565b612f638185612f02565b9350612f73818560208601612f13565b612f7c81612f3d565b840191505092915050565b60006020820190508181036000830152612fa18184612f4e565b905092915050565b6000819050919050565b612fbc81612fa9565b8114612fc757600080fd5b50565b600081359050612fd981612fb3565b92915050565b600060208284031215612ff557612ff4612e32565b5b600061300384828501612fca565b91505092915050565b600073ffffffffffffffffffffffffffffffffffffffff82169050919050565b60006130378261300c565b9050919050565b6130478161302c565b82525050565b6000602082019050613062600083018461303e565b92915050565b6130718161302c565b811461307c57600080fd5b50565b60008135905061308e81613068565b92915050565b600080604083850312156130ab576130aa612e32565b5b60006130b98582860161307f565b92505060206130ca85828601612fca565b9150509250929050565b6000806000606084860312156130ed576130ec612e32565b5b60006130fb8682870161307f565b935050602061310c8682870161307f565b925050604061311d86828701612fca565b9150509250925092565b61313081612fa9565b82525050565b600060208201905061314b6000830184613127565b92915050565b60006020828403121561316757613166612e32565b5b60006131758482850161307f565b91505092915050565b7f4e487b7100000000000000000000000000000000000000000000000000000000600052602160045260246000fd5b600381106131be576131bd61317e565b5b50565b60008190506131cf826131ad565b919050565b60006131df826131c1565b9050919050565b6131ef816131d4565b82525050565b60006101408201905061320b600083018d61303e565b818103602083015261321d818c612f4e565b90508181036040830152613231818b612f4e565b90508181036060830152613245818a612f4e565b905081810360808301526132598189612f4e565b905081810360a083015261326d8188612f4e565b905081810360c08301526132818187612f4e565b905081810360e08301526132958186612f4e565b90506132a56101008301856131e6565b6132b3610120830184613127565b9b9a5050505050505050505050565b600080fd5b600080fd5b7f4e487b7100000000000000000000000000000000000000000000000000000000600052604160045260246000fd5b61330482612f3d565b810181811067ffffffffffffffff82111715613323576133226132cc565b5b80604052505050565b6000613336612e28565b905061334282826132fb565b919050565b600067ffffffffffffffff821115613362576133616132cc565b5b61336b82612f3d565b9050602081019050919050565b82818337600083830152505050565b600061339a61339584613347565b61332c565b9050828152602081018484840111156133b6576133b56132c7565b5b6133c1848285613378565b509392505050565b600082601f8301126133de576133dd6132c2565b5b81356133ee848260208601613387565b91505092915050565b6000806040838503121561340e5761340d612e32565b5b600061341c85828601612fca565b925050602083013567ffffffffffffffff81111561343d5761343c612e37565b5b613449858286016133c9565b9150509250929050565b61345c81612ec1565b811461346757600080fd5b50565b60008135905061347981613453565b92915050565b6000806040838503121561349657613495612e32565b5b60006134a48582860161307f565b92505060206134b58582860161346a565b9150509250929050565b600081519050919050565b600082825260208201905092915050565b6000819050602082019050919050565b6134f481612fa9565b82525050565b600061350683836134eb565b60208301905092915050565b6000602082019050919050565b600061352a826134bf565b61353481856134ca565b935061353f836134db565b8060005b8381101561357057815161355788826134fa565b975061356283613512565b925050600181019050613543565b5085935050505092915050565b60006020820190508181036000830152613597818461351f565b905092915050565b600067ffffffffffffffff8211156135ba576135b96132cc565b5b6135c382612f3d565b9050602081019050919050565b60006135e36135de8461359f565b61332c565b9050828152602081018484840111156135ff576135fe6132c7565b5b61360a848285613378565b509392505050565b600082601f830112613627576136266132c2565b5b81356136378482602086016135d0565b91505092915050565b6000806000806080858703121561365a57613659612e32565b5b60006136688782880161307f565b94505060206136798782880161307f565b935050604061368a87828801612fca565b925050606085013567ffffffffffffffff8111156136ab576136aa612e37565b5b6136b787828801613612565b91505092959194509250565b600080600080600080600060e0888a0312156136e2576136e1612e32565b5b600088013567ffffffffffffffff811115613700576136ff612e37565b5b61370c8a828b016133c9565b975050602088013567ffffffffffffffff81111561372d5761372c612e37565b5b6137398a828b016133c9565b965050604088013567ffffffffffffffff81111561375a57613759612e37565b5b6137668a828b016133c9565b955050606088013567ffffffffffffffff81111561378757613786612e37565b5b6137938a828b016133c9565b945050608088013567ffffffffffffffff8111156137b4576137b3612e37565b5b6137c08a828b016133c9565b93505060a088013567ffffffffffffffff8111156137e1576137e0612e37565b5b6137ed8a828b016133c9565b92505060c088013567ffffffffffffffff81111561380e5761380d612e37565b5b61381a8a828b016133c9565b91505092959891949750929550565b600080604083850312156138405761383f612e32565b5b600061384e8582860161307f565b925050602061385f8582860161307f565b9150509250929050565b7f4e487b7100000000000000000000000000000000000000000000000000000000600052602260045260246000fd5b600060028204905060018216806138b057607f821691505b6020821081036138c3576138c2613869565b5b50919050565b60006060820190506138de600083018661303e565b6138eb6020830185613127565b6138f8604083018461303e565b949350505050565b7f416c72656164792070726f636573736564000000000000000000000000000000600082015250565b6000613936601183612f02565b915061394182613900565b602082019050919050565b6000602082019050818103600083015261396581613929565b9050919050565b7f4e487b7100000000000000000000000000000000000000000000000000000000600052603260045260246000fd5b600081905092915050565b60008190508160005260206000209050919050565b600081546139c881613898565b6139d2818661399b565b945060018216600081146139ed5760018114613a0257613a35565b60ff1983168652811515820286019350613a35565b613a0b856139a6565b60005b83811015613a2d57815481890152600182019150602081019050613a0e565b838801955050505b50505092915050565b6000613a4a82846139bb565b915081905092915050565b7f4e487b7100000000000000000000000000000000000000000000000000000000600052601160045260246000fd5b6000613a8f82612fa9565b91507fffffffffffffffffffffffffffffffffffffffffffffffffffffffffffffffff8203613ac157613ac0613a55565b5b600182019050919050565b6000604082019050613ae16000830185613127565b613aee6020830184613127565b9392505050565b6000613b0082612ef7565b613b0a818561399b565b9350613b1a818560208601612f13565b80840191505092915050565b6000613b328285613af5565b9150613b3e8284613af5565b91508190509392505050565b6000613b568284613af5565b915081905092915050565b60006020601f8301049050919050565b600082821b905092915050565b600060088302613bae7fffffffffffffffffffffffffffffffffffffffffffffffffffffffffffffffff82613b71565b613bb88683613b71565b95508019841693508086168417925050509392505050565b6000819050919050565b6000613bf5613bf0613beb84612fa9565b613bd0565b612fa9565b9050919050565b6000819050919050565b613c0f83613bda565b613c23613c1b82613bfc565b848454613b7e565b825550505050565b600090565b613c38613c2b565b613c43818484613c06565b505050565b5b81811015613c6757613c5c600082613c30565b600181019050613c49565b5050565b601f821115613cac57613c7d816139a6565b613c8684613b61565b81016020851015613c95578190505b613ca9613ca185613b61565b830182613c48565b50505b505050565b600082821c905092915050565b6000613ccf60001984600802613cb1565b1980831691505092915050565b6000613ce88383613cbe565b9150826002028217905092915050565b613d0182612ef7565b67ffffffffffffffff811115613d1a57613d196132cc565b5b613d248254613898565b613d2f828285613c6b565b600060209050601f831160018114613d625760008415613d50578287015190505b613d5a8582613cdc565b865550613dc2565b601f198416613d70866139a6565b60005b82811015613d9857848901518255600182019150602085019450602081019050613d73565b86831015613db55784890151613db1601f891682613cbe565b8355505b6001600288020188555050505b505050505050565b600081519050919050565b600082825260208201905092915050565b6000613df182613dca565b613dfb8185613dd5565b9350613e0b818560208601612f13565b613e1481612f3d565b840191505092915050565b6000608082019050613e34600083018761303e565b613e41602083018661303e565b613e4e6040830185613127565b8181036060830152613e608184613de6565b905095945050505050565b600081519050613e7a81612e68565b92915050565b600060208284031215613e9657613e95612e32565b5b6000613ea484828501613e6b565b91505092915050565b6000604082019050613ec2600083018561303e565b613ecf6020830184613127565b9392505050565b7f4e487b7100000000000000000000000000000000000000000000000000000000600052601260045260246000fdfea2646970667358221220a913ed0aa751c663a17dfb75f542e73c06309d4240762c425cd3fd56e569618a64736f6c63430008140033",
  "linkReferences": {},
  "deployedLinkReferences": {}
}