{
  "_format": "hh-sol-artifact-1",
  "contractName": "DocumentNFT",
  "sourceName": "contracts/solidity.sol",
  "abi": [
    {
      "inputs": [],
      "stateMutability": "nonpayable",
      "type": "constructor"
    },
    {
      "inputs": [
        {
          "internalType": "address",
          "name": "sender",
          "type": "address"
        },
        {
          "internalType": "uint256",
          "name": "tokenId",
          "type": "uint256"
        },
        {
          "internalType": "address",
          "name": "owner",
          "type": "address"
        }
      ],
      "name": "ERC721IncorrectOwner",
      "type": "error"
    },
    {
      "inputs": [
        {
          "internalType": "address",
          "name": "operator",
          "type": "address"
        },
        {
          "internalType": "uint256",
          "name": "tokenId",
          "type": "uint256"
        }
      ],
      "name": "ERC721InsufficientApproval",
      "type": "error"
    },
    {
      "inputs": [
        {
          "internalType": "address",
          "name": "approver",
          "type": "address"
        }
      ],
      "name": "ERC721InvalidApprover",
      "type": "error"
    },
    {
      "inputs": [
        {
          "internalType": "address",
          "name": "operator",
          "type": "address"
        }
      ],
      "name": "ERC721InvalidOperator",
      "type": "error"
    },
    {
      "inputs": [
        {
          "internalType": "address",
          "name": "owner",
          "type": "address"
        }
      ],
      "name": "ERC721InvalidOwner",
      "type": "error"
    },
    {
      "inputs": [
        {
          "internalType": "address",
          "name": "receiver",
          "type": "address"
        }
      ],
      "name": "ERC721InvalidReceiver",
      "type": "error"
    },
    {
      "inputs": [
        {
          "internalType": "address",
          "name": "sender",
          "type": "address"
        }
      ],
      "name": "ERC721InvalidSender",
      "type": "error"
    },
    {
      "inputs": [
        {
          "internalType": "uint256",
          "name": "tokenId",
          "type": "uint256"
        }
      ],
      "name": "ERC721NonexistentToken",
      "type": "error"
    },
    {
      "inputs": [
        {
          "internalType": "address",
          "name": "owner",
          "type": "address"
        }
      ],
      "name": "OwnableInvalidOwner",
      "type": "error"
    },
    {
      "inputs": [
        {
          "internalType": "address",
          "name": "account",
          "type": "address"
        }
      ],
      "name": "OwnableUnauthorizedAccount",
      "type": "error"
    },
    {
      "anonymous": false,
      "inputs": [
        {
          "indexed": true,
          "internalType": "address",
          "name": "owner",
          "type": "address"
        },
        {
          "indexed": true,
          "internalType": "address",
          "name": "approved",
          "type": "address"
        },
        {
          "indexed": true,
          "internalType": "uint256",
          "name": "tokenId",
          "type": "uint256"
        }
      ],
      "name": "Approval",
      "type": "event"
    },
    {
      "anonymous": false,
      "inputs": [
        {
          "indexed": true,
          "internalType": "address",
          "name": "owner",
          "type": "address"
        },
        {
          "indexed": true,
          "internalType": "address",
          "name": "operator",
          "type": "address"
        },
        {
          "indexed": false,
          "internalType": "bool",
          "name": "approved",
          "type": "bool"
        }
      ],
      "name": "ApprovalForAll",
      "type": "event"
    },
    {
      "anonymous": false,
      "inputs": [
        {
          "indexed": false,
          "internalType": "uint256",
          "name": "_fromTokenId",
          "type": "uint256"
        },
        {
          "indexed": false,
          "internalType": "uint256",
          "name": "_toTokenId",
          "type": "uint256"
        }
      ],
      "name": "BatchMetadataUpdate",
      "type": "event"
    },
    {
      "anonymous": false,
      "inputs": [
        {
          "indexed": false,
          "internalType": "uint256",
          "name": "requestId",
          "type": "uint256"
        },
        {
          "indexed": false,
          "internalType": "uint256",
          "name": "tokenId",
          "type": "uint256"
        }
      ],
      "name": "DocumentApproved",
      "type": "event"
    },
    {
      "anonymous": false,
      "inputs": [
        {
          "indexed": false,
          "internalType": "uint256",
          "name": "requestId",
          "type": "uint256"
        }
      ],
      "name": "DocumentRejected",
      "type": "event"
    },
    {
      "anonymous": false,
      "inputs": [
        {
          "indexed": false,
          "internalType": "uint256",
          "name": "requestId",
          "type": "uint256"
        },
        {
          "indexed": true,
          "internalType": "address",
          "name": "user",
          "type": "address"
        }
      ],
      "name": "DocumentRequested",
      "type": "event"
    },
    {
      "anonymous": false,
      "inputs": [
        {
          "indexed": false,
          "internalType": "uint256",
          "name": "_tokenId",
          "type": "uint256"
        }
      ],
      "name": "MetadataUpdate",
      "type": "event"
    },
    {
      "anonymous": false,
      "inputs": [
        {
          "indexed": true,
          "internalType": "address",
          "name": "previousOwner",
          "type": "address"
        },
        {
          "indexed": true,
          "internalType": "address",
          "name": "newOwner",
          "type": "address"
        }
      ],
      "name": "OwnershipTransferred",
      "type": "event"
    },
    {
      "anonymous": false,
      "inputs": [
        {
          "indexed": true,
          "internalType": "address",
          "name": "from",
          "type": "address"
        },
        {
          "indexed": true,
          "internalType": "address",
          "name": "to",
          "type": "address"
        },
        {
          "indexed": true,
          "internalType": "uint256",
          "name": "tokenId",
          "type": "uint256"
        }
      ],
      "name": "Transfer",
      "type": "event"
    },
    {
      "inputs": [
        {
          "internalType": "address",
          "name": "to",
          "type": "address"
        },
        {
          "internalType": "uint256",
          "name": "tokenId",
          "type": "uint256"
        }
      ],
      "name": "approve",
      "outputs": [],
      "stateMutability": "nonpayable",
      "type": "function"
    },
    {
      "inputs": [
        {
          "internalType": "uint256",
          "name": "_requestId",
          "type": "uint256"
        },
        {
          "internalType": "string",
          "name": "_tokenURI",
          "type": "string"
        }
      ],
      "name": "approveDocument",
      "outputs": [],
      "stateMutability": "nonpayable",
      "type": "function"
    },
    {
      "inputs": [
        {
          "internalType": "address",
          "name": "owner",
          "type": "address"
        }
      ],
      "name": "balanceOf",
      "outputs": [
        {
          "internalType": "uint256",
          "name": "",
          "type": "uint256"
        }
      ],
      "stateMutability": "view",
      "type": "function"
    },
    {
      "inputs": [
        {
          "internalType": "uint256",
          "name": "tokenId",
          "type": "uint256"
        }
      ],
      "name": "getApproved",
      "outputs": [
        {
          "internalType": "address",
          "name": "",
          "type": "address"
        }
      ],
      "stateMutability": "view",
      "type": "function"
    },
    {
      "inputs": [
        {
          "internalType": "uint256",
          "name": "requestId",
          "type": "uint256"
        }
      ],
      "name": "getRequestDetails",
      "outputs": [
        {
          "internalType": "address",
          "name": "",
          "type": "address"
        },
        {
          "internalType": "string",
          "name": "",
          "type": "string"
        },
        {
          "internalType": "string",
          "name": "",
          "type": "string"
        },
        {
          "internalType": "string",
          "name": "",
          "type": "string"
        },
        {
          "internalType": "string",
          "name": "",
          "type": "string"
        },
        {
          "internalType": "string",
          "name": "",
          "type": "string"
        },
        {
          "internalType": "string",
          "name": "",
          "type": "string"
        },
        {
          "internalType": "enum DocumentNFT.RequestStatus",
          "name": "",
          "type": "uint8"
        },
        {
          "internalType": "uint256",
          "name": "",
          "type": "uint256"
        }
      ],
      "stateMutability": "view",
      "type": "function"
    },
    {
      "inputs": [
        {
          "internalType": "address",
          "name": "user",
          "type": "address"
        }
      ],
      "name": "getUserRequests",
      "outputs": [
        {
          "internalType": "uint256[]",
          "name": "",
          "type": "uint256[]"
        }
      ],
      "stateMutability": "view",
      "type": "function"
    },
    {
      "inputs": [
        {
          "internalType": "address",
          "name": "owner",
          "type": "address"
        },
        {
          "internalType": "address",
          "name": "operator",
          "type": "address"
        }
      ],
      "name": "isApprovedForAll",
      "outputs": [
        {
          "internalType": "bool",
          "name": "",
          "type": "bool"
        }
      ],
      "stateMutability": "view",
      "type": "function"
    },
    {
      "inputs": [],
      "name": "name",
      "outputs": [
        {
          "internalType": "string",
          "name": "",
          "type": "string"
        }
      ],
      "stateMutability": "view",
      "type": "function"
    },
    {
      "inputs": [],
      "name": "owner",
      "outputs": [
        {
          "internalType": "address",
          "name": "",
          "type": "address"
        }
      ],
      "stateMutability": "view",
      "type": "function"
    },
    {
      "inputs": [
        {
          "internalType": "uint256",
          "name": "tokenId",
          "type": "uint256"
        }
      ],
      "name": "ownerOf",
      "outputs": [
        {
          "internalType": "address",
          "name": "",
          "type": "address"
        }
      ],
      "stateMutability": "view",
      "type": "function"
    },
    {
      "inputs": [
        {
          "internalType": "uint256",
          "name": "_requestId",
          "type": "uint256"
        }
      ],
      "name": "rejectDocument",
      "outputs": [],
      "stateMutability": "nonpayable",
      "type": "function"
    },
    {
      "inputs": [],
      "name": "renounceOwnership",
      "outputs": [],
      "stateMutability": "nonpayable",
      "type": "function"
    },
    {
      "inputs": [
        {
          "internalType": "string",
          "name": "_name",
          "type": "string"
        },
        {
          "internalType": "string",
          "name": "_dob",
          "type": "string"
        },
        {
          "internalType": "string",
          "name": "_gender",
          "type": "string"
        },
        {
          "internalType": "string",
          "name": "_contact",
          "type": "string"
        },
        {
          "internalType": "string",
          "name": "_addressDetails",
          "type": "string"
        },
        {
          "internalType": "string",
          "name": "_ipfsHash",
          "type": "string"
        }
      ],
      "name": "requestDocument",
      "outputs": [],
      "stateMutability": "nonpayable",
      "type": "function"
    },
    {
      "inputs": [
        {
          "internalType": "uint256",
          "name": "",
          "type": "uint256"
        }
      ],
      "name": "requests",
      "outputs": [
        {
          "internalType": "address",
          "name": "user",
          "type": "address"
        },
        {
          "internalType": "string",
          "name": "name",
          "type": "string"
        },
        {
          "internalType": "string",
          "name": "dob",
          "type": "string"
        },
        {
          "internalType": "string",
          "name": "gender",
          "type": "string"
        },
        {
          "internalType": "string",
          "name": "contact",
          "type": "string"
        },
        {
          "internalType": "string",
          "name": "addressDetails",
          "type": "string"
        },
        {
          "internalType": "string",
          "name": "ipfsHash",
          "type": "string"
        },
        {
          "internalType": "enum DocumentNFT.RequestStatus",
          "name": "status",
          "type": "uint8"
        },
        {
          "internalType": "uint256",
          "name": "tokenId",
          "type": "uint256"
        }
      ],
      "stateMutability": "view",
      "type": "function"
    },
    {
      "inputs": [
        {
          "internalType": "address",
          "name": "from",
          "type": "address"
        },
        {
          "internalType": "address",
          "name": "to",
          "type": "address"
        },
        {
          "internalType": "uint256",
          "name": "tokenId",
          "type": "uint256"
        }
      ],
      "name": "safeTransferFrom",
      "outputs": [],
      "stateMutability": "nonpayable",
      "type": "function"
    },
    {
      "inputs": [
        {
          "internalType": "address",
          "name": "from",
          "type": "address"
        },
        {
          "internalType": "address",
          "name": "to",
          "type": "address"
        },
        {
          "internalType": "uint256",
          "name": "tokenId",
          "type": "uint256"
        },
        {
          "internalType": "bytes",
          "name": "data",
          "type": "bytes"
        }
      ],
      "name": "safeTransferFrom",
      "outputs": [],
      "stateMutability": "nonpayable",
      "type": "function"
    },
    {
      "inputs": [
        {
          "internalType": "address",
          "name": "operator",
          "type": "address"
        },
        {
          "internalType": "bool",
          "name": "approved",
          "type": "bool"
        }
      ],
      "name": "setApprovalForAll",
      "outputs": [],
      "stateMutability": "nonpayable",
      "type": "function"
    },
    {
      "inputs": [
        {
          "internalType": "bytes4",
          "name": "interfaceId",
          "type": "bytes4"
        }
      ],
      "name": "supportsInterface",
      "outputs": [
        {
          "internalType": "bool",
          "name": "",
          "type": "bool"
        }
      ],
      "stateMutability": "view",
      "type": "function"
    },
    {
      "inputs": [],
      "name": "symbol",
      "outputs": [
        {
          "internalType": "string",
          "name": "",
          "type": "string"
        }
      ],
      "stateMutability": "view",
      "type": "function"
    },
    {
      "inputs": [],
      "name": "tokenCounter",
      "outputs": [
        {
          "internalType": "uint256",
          "name": "",
          "type": "uint256"
        }
      ],
      "stateMutability": "view",
      "type": "function"
    },
    {
      "inputs": [
        {
          "internalType": "uint256",
          "name": "tokenId",
          "type": "uint256"
        }
      ],
      "name": "tokenURI",
      "outputs": [
        {
          "internalType": "string",
          "name": "",
          "type": "string"
        }
      ],
      "stateMutability": "view",
      "type": "function"
    },
    {
      "inputs": [
        {
          "internalType": "address",
          "name": "from",
          "type": "address"
        },
        {
          "internalType": "address",
          "name": "to",
          "type": "address"
        },
        {
          "internalType": "uint256",
          "name": "tokenId",
          "type": "uint256"
        }
      ],
      "name": "transferFrom",
      "outputs": [],
      "stateMutability": "nonpayable",
      "type": "function"
    },
    {
      "inputs": [
        {
          "internalType": "address",
          "name": "newOwner",
          "type": "address"
        }
      ],
      "name": "transferOwnership",
      "outputs": [],
      "stateMutability": "nonpayable",
      "type": "function"
    },
    {
      "inputs": [
        {
          "internalType": "address",
          "name": "",
          "type": "address"
        },
        {
          "internalType": "uint256",
          "name": "",
          "type": "uint256"
        }
      ],
      "name": "userRequests",
      "outputs": [
        {
          "internalType": "uint256",
          "name": "",
          "type": "uint256"
        }
      ],
      "stateMutability": "view",
      "type": "function"
    }
  ],
  "bytecode": "0x60806040523480156200001157600080fd5b50336040518060400160405280600b81526020017f446f63756d656e744e46540000000000000000000000000000000000000000008152506040518060400160405280600381526020017f414144000000000000000000000000000000000000000000000000000000000081525081600090816200009091906200047a565b508060019081620000a291906200047a565b505050600073ffffffffffffffffffffffffffffffffffffffff168173ffffffffffffffffffffffffffffffffffffffff16036200011a5760006040517f1e4fbdf7000000000000000000000000000000000000000000000000000000008152600401620001119190620005a6565b60405180910390fd5b6200012b816200013a60201b60201c565b506001600881905550620005c3565b6000600760009054906101000a900473ffffffffffffffffffffffffffffffffffffffff16905081600760006101000a81548173ffffffffffffffffffffffffffffffffffffffff021916908373ffffffffffffffffffffffffffffffffffffffff1602179055508173ffffffffffffffffffffffffffffffffffffffff168173ffffffffffffffffffffffffffffffffffffffff167f8be0079c531659141344cd1fd0a4f28419497f9722a3daafe3b4186f6b6457e060405160405180910390a35050565b600081519050919050565b7f4e487b7100000000000000000000000000000000000000000000000000000000600052604160045260246000fd5b7f4e487b7100000000000000000000000000000000000000000000000000000000600052602260045260246000fd5b600060028204905060018216806200028257607f821691505b6020821081036200029857620002976200023a565b5b50919050565b60008190508160005260206000209050919050565b60006020601f8301049050919050565b600082821b905092915050565b600060088302620003027fffffffffffffffffffffffffffffffffffffffffffffffffffffffffffffffff82620002c3565b6200030e8683620002c3565b95508019841693508086168417925050509392505050565b6000819050919050565b6000819050919050565b60006200035b620003556200034f8462000326565b62000330565b62000326565b9050919050565b6000819050919050565b62000377836200033a565b6200038f620003868262000362565b848454620002d0565b825550505050565b600090565b620003a662000397565b620003b38184846200036c565b505050565b5b81811015620003db57620003cf6000826200039c565b600181019050620003b9565b5050565b601f8211156200042a57620003f4816200029e565b620003ff84620002b3565b810160208510156200040f578190505b620004276200041e85620002b3565b830182620003b8565b50505b505050565b600082821c905092915050565b60006200044f600019846008026200042f565b1980831691505092915050565b60006200046a83836200043c565b9150826002028217905092915050565b620004858262000200565b67ffffffffffffffff811115620004a157620004a06200020b565b5b620004ad825462000269565b620004ba828285620003df565b600060209050601f831160018114620004f25760008415620004dd578287015190505b620004e985826200045c565b86555062000559565b601f19841662000502866200029e565b60005b828110156200052c5784890151825560018201915060208501945060208101905062000505565b868310156200054c578489015162000548601f8916826200043c565b8355505b6001600288020188555050505b505050505050565b600073ffffffffffffffffffffffffffffffffffffffff82169050919050565b60006200058e8262000561565b9050919050565b620005a08162000581565b82525050565b6000602082019050620005bd600083018462000595565b92915050565b61389080620005d36000396000f3fe608060405234801561001057600080fd5b50600436106101585760003560e01c806381d12c58116100c3578063b88d4fde1161007c578063b88d4fde146103dd578063c87b56dd146103f9578063d082e38114610429578063e985e9c514610447578063f2fde38b14610477578063f34d4c631461049357610158565b806381d12c58146103015780638da5cb5b1461033957806395d89b4114610357578063a1b10f2114610375578063a22cb46514610391578063b337cf74146103ad57610158565b8063387843fa11610115578063387843fa1461024357806342842e0e1461025f5780636352211e1461027b57806370a08231146102ab578063715018a6146102db5780637b10becb146102e557610158565b806301ffc9a71461015d57806306fdde031461018d578063081812fc146101ab578063095ea7b3146101db57806323b872dd146101f7578063263cb6b614610213575b600080fd5b61017760048036038101906101729190612910565b6104cb565b6040516101849190612958565b60405180910390f35b61019561052c565b6040516101a29190612a03565b60405180910390f35b6101c560048036038101906101c09190612a5b565b6105be565b6040516101d29190612ac9565b60405180910390f35b6101f560048036038101906101f09190612b10565b6105da565b005b610211600480360381019061020c9190612b50565b6105f0565b005b61022d60048036038101906102289190612b10565b6106f2565b60405161023a9190612bb2565b60405180910390f35b61025d60048036038101906102589190612d02565b610723565b005b61027960048036038101906102749190612b50565b6108f9565b005b61029560048036038101906102909190612a5b565b610919565b6040516102a29190612ac9565b60405180910390f35b6102c560048036038101906102c09190612e37565b61092b565b6040516102d29190612bb2565b60405180910390f35b6102e36109e5565b005b6102ff60048036038101906102fa9190612a5b565b6109f9565b005b61031b60048036038101906103169190612a5b565b610af8565b60405161033099989796959493929190612edb565b60405180910390f35b610341610ea3565b60405161034e9190612ac9565b60405180910390f35b61035f610ecd565b60405161036c9190612a03565b60405180910390f35b61038f600480360381019061038a9190612f92565b610f5f565b005b6103ab60048036038101906103a6919061301a565b6110a8565b005b6103c760048036038101906103c29190612e37565b6110be565b6040516103d49190613118565b60405180910390f35b6103f760048036038101906103f291906131db565b611155565b005b610413600480360381019061040e9190612a5b565b61117a565b6040516104209190612a03565b60405180910390f35b61043161128d565b60405161043e9190612bb2565b60405180910390f35b610461600480360381019061045c919061325e565b611293565b60405161046e9190612958565b60405180910390f35b610491600480360381019061048c9190612e37565b611327565b005b6104ad60048036038101906104a89190612a5b565b6113ad565b6040516104c299989796959493929190612edb565b60405180910390f35b6000634906490660e01b7bffffffffffffffffffffffffffffffffffffffffffffffffffffffff1916827bffffffffffffffffffffffffffffffffffffffffffffffffffffffff19161480610525575061052482611833565b5b9050919050565b60606000805461053b906132cd565b80601f0160208091040260200160405190810160405280929190818152602001828054610567906132cd565b80156105b45780601f10610589576101008083540402835291602001916105b4565b820191906000526020600020905b81548152906001019060200180831161059757829003601f168201915b5050505050905090565b60006105c982611915565b506105d38261199d565b9050919050565b6105ec82826105e76119da565b6119e2565b5050565b600073ffffffffffffffffffffffffffffffffffffffff168273ffffffffffffffffffffffffffffffffffffffff16036106625760006040517f64a0ae920000000000000000000000000000000000000000000000000000000081526004016106599190612ac9565b60405180910390fd5b600061067683836106716119da565b6119f4565b90508373ffffffffffffffffffffffffffffffffffffffff168173ffffffffffffffffffffffffffffffffffffffff16146106ec578382826040517f64283d7b0000000000000000000000000000000000000000000000000000000081526004016106e3939291906132fe565b60405180910390fd5b50505050565b600a602052816000526040600020818154811061070e57600080fd5b90600052602060002001600091509150505481565b60006008600081548092919061073890613364565b9190505590506000600960008381526020019081526020016000209050338160000160006101000a81548173ffffffffffffffffffffffffffffffffffffffff021916908373ffffffffffffffffffffffffffffffffffffffff160217905550878160010190816107a99190613558565b50868160020190816107bb9190613558565b50858160030190816107cd9190613558565b50848160040190816107df9190613558565b50838160050190816107f19190613558565b50828160060190816108039190613558565b5060008160070160006101000a81548160ff0219169083600281111561082c5761082b612e64565b5b021790555060008160080181905550600a60003373ffffffffffffffffffffffffffffffffffffffff1673ffffffffffffffffffffffffffffffffffffffff1681526020019081526020016000208290806001815401808255809150506001900390600052602060002001600090919091909150553373ffffffffffffffffffffffffffffffffffffffff167fcf22c3b689a8ab83848272c09c41b46ff3bba40bf90374fd1d85cdc7fe526070836040516108e79190612bb2565b60405180910390a25050505050505050565b61091483838360405180602001604052806000815250611155565b505050565b600061092482611915565b9050919050565b60008073ffffffffffffffffffffffffffffffffffffffff168273ffffffffffffffffffffffffffffffffffffffff160361099e5760006040517f89c62b640000000000000000000000000000000000000000000000000000000081526004016109959190612ac9565b60405180910390fd5b600360008373ffffffffffffffffffffffffffffffffffffffff1673ffffffffffffffffffffffffffffffffffffffff168152602001908152602001600020549050919050565b6109ed611c0e565b6109f76000611c95565b565b610a01611c0e565b600060096000838152602001908152602001600020905060006002811115610a2c57610a2b612e64565b5b8160070160009054906101000a900460ff166002811115610a5057610a4f612e64565b5b14610a90576040517f08c379a0000000000000000000000000000000000000000000000000000000008152600401610a8790613676565b60405180910390fd5b60028160070160006101000a81548160ff02191690836002811115610ab857610ab7612e64565b5b02179055507f9b7d442dd67c77ac8ed186e072b963a6229576f85973bfbac316aa1ccf4ea59582604051610aec9190612bb2565b60405180910390a15050565b60096020528060005260406000206000915090508060000160009054906101000a900473ffffffffffffffffffffffffffffffffffffffff1690806001018054610b41906132cd565b80601f0160208091040260200160405190810160405280929190818152602001828054610b6d906132cd565b8015610bba5780601f10610b8f57610100808354040283529160200191610bba565b820191906000526020600020905b815481529060010190602001808311610b9d57829003601f168201915b505050505090806002018054610bcf906132cd565b80601f0160208091040260200160405190810160405280929190818152602001828054610bfb906132cd565b8015610c485780601f10610c1d57610100808354040283529160200191610c48565b820191906000526020600020905b815481529060010190602001808311610c2b57829003601f168201915b505050505090806003018054610c5d906132cd565b80601f0160208091040260200160405190810160405280929190818152602001828054610c89906132cd565b8015610cd65780601f10610cab57610100808354040283529160200191610cd6565b820191906000526020600020905b815481529060010190602001808311610cb957829003601f168201915b505050505090806004018054610ceb906132cd565b80601f0160208091040260200160405190810160405280929190818152602001828054610d17906132cd565b8015610d645780601f10610d3957610100808354040283529160200191610d64565b820191906000526020600020905b815481529060010190602001808311610d4757829003601f168201915b505050505090806005018054610d79906132cd565b80601f0160208091040260200160405190810160405280929190818152602001828054610da5906132cd565b8015610df25780601f10610dc757610100808354040283529160200191610df2565b820191906000526020600020905b815481529060010190602001808311610dd557829003601f168201915b505050505090806006018054610e07906132cd565b80601f0160208091040260200160405190810160405280929190818152602001828054610e33906132cd565b8015610e805780601f10610e5557610100808354040283529160200191610e80565b820191906000526020600020905b815481529060010190602001808311610e6357829003601f168201915b5050505050908060070160009054906101000a900460ff16908060080154905089565b6000600760009054906101000a900473ffffffffffffffffffffffffffffffffffffffff16905090565b606060018054610edc906132cd565b80601f0160208091040260200160405190810160405280929190818152602001828054610f08906132cd565b8015610f555780601f10610f2a57610100808354040283529160200191610f55565b820191906000526020600020905b815481529060010190602001808311610f3857829003601f168201915b5050505050905090565b610f67611c0e565b600060096000848152602001908152602001600020905060006002811115610f9257610f91612e64565b5b8160070160009054906101000a900460ff166002811115610fb657610fb5612e64565b5b14610ff6576040517f08c379a0000000000000000000000000000000000000000000000000000000008152600401610fed90613676565b60405180910390fd5b60008390506110298260000160009054906101000a900473ffffffffffffffffffffffffffffffffffffffff1682611d5b565b6110338184611d79565b60018260070160006101000a81548160ff0219169083600281111561105b5761105a612e64565b5b02179055508082600801819055507f9021cd00b1977b91ce477b78754e76b2ab8bd9b2a41a0552c4f8eb1d7f8dc2b7848260405161109a929190613696565b60405180910390a150505050565b6110ba6110b36119da565b8383611dd5565b5050565b6060600a60008373ffffffffffffffffffffffffffffffffffffffff1673ffffffffffffffffffffffffffffffffffffffff16815260200190815260200160002080548060200260200160405190810160405280929190818152602001828054801561114957602002820191906000526020600020905b815481526020019060010190808311611135575b50505050509050919050565b6111608484846105f0565b61117461116b6119da565b85858585611f44565b50505050565b606061118582611915565b5060006006600084815260200190815260200160002080546111a6906132cd565b80601f01602080910402602001604051908101604052809291908181526020018280546111d2906132cd565b801561121f5780601f106111f45761010080835404028352916020019161121f565b820191906000526020600020905b81548152906001019060200180831161120257829003601f168201915b5050505050905060006112306120f5565b90506000815103611245578192505050611288565b60008251111561127a5780826040516020016112629291906136fb565b60405160208183030381529060405292505050611288565b6112838461210c565b925050505b919050565b60085481565b6000600560008473ffffffffffffffffffffffffffffffffffffffff1673ffffffffffffffffffffffffffffffffffffffff16815260200190815260200160002060008373ffffffffffffffffffffffffffffffffffffffff1673ffffffffffffffffffffffffffffffffffffffff16815260200190815260200160002060009054906101000a900460ff16905092915050565b61132f611c0e565b600073ffffffffffffffffffffffffffffffffffffffff168173ffffffffffffffffffffffffffffffffffffffff16036113a15760006040517f1e4fbdf70000000000000000000000000000000000000000000000000000000081526004016113989190612ac9565b60405180910390fd5b6113aa81611c95565b50565b60006060806060806060806000806000600960008c8152602001908152602001600020604051806101200160405290816000820160009054906101000a900473ffffffffffffffffffffffffffffffffffffffff1673ffffffffffffffffffffffffffffffffffffffff1673ffffffffffffffffffffffffffffffffffffffff168152602001600182018054611442906132cd565b80601f016020809104026020016040519081016040528092919081815260200182805461146e906132cd565b80156114bb5780601f10611490576101008083540402835291602001916114bb565b820191906000526020600020905b81548152906001019060200180831161149e57829003601f168201915b505050505081526020016002820180546114d4906132cd565b80601f0160208091040260200160405190810160405280929190818152602001828054611500906132cd565b801561154d5780601f106115225761010080835404028352916020019161154d565b820191906000526020600020905b81548152906001019060200180831161153057829003601f168201915b50505050508152602001600382018054611566906132cd565b80601f0160208091040260200160405190810160405280929190818152602001828054611592906132cd565b80156115df5780601f106115b4576101008083540402835291602001916115df565b820191906000526020600020905b8154815290600101906020018083116115c257829003601f168201915b505050505081526020016004820180546115f8906132cd565b80601f0160208091040260200160405190810160405280929190818152602001828054611624906132cd565b80156116715780601f1061164657610100808354040283529160200191611671565b820191906000526020600020905b81548152906001019060200180831161165457829003601f168201915b5050505050815260200160058201805461168a906132cd565b80601f01602080910402602001604051908101604052809291908181526020018280546116b6906132cd565b80156117035780601f106116d857610100808354040283529160200191611703565b820191906000526020600020905b8154815290600101906020018083116116e657829003601f168201915b5050505050815260200160068201805461171c906132cd565b80601f0160208091040260200160405190810160405280929190818152602001828054611748906132cd565b80156117955780601f1061176a57610100808354040283529160200191611795565b820191906000526020600020905b81548152906001019060200180831161177857829003601f168201915b505050505081526020016007820160009054906101000a900460ff1660028111156117c3576117c2612e64565b5b60028111156117d5576117d4612e64565b5b81526020016008820154815250509050806000015181602001518260400151836060015184608001518560a001518660c001518760e00151886101000151995099509950995099509950995099509950509193959799909294969850565b60007f80ac58cd000000000000000000000000000000000000000000000000000000007bffffffffffffffffffffffffffffffffffffffffffffffffffffffff1916827bffffffffffffffffffffffffffffffffffffffffffffffffffffffff191614806118fe57507f5b5e139f000000000000000000000000000000000000000000000000000000007bffffffffffffffffffffffffffffffffffffffffffffffffffffffff1916827bffffffffffffffffffffffffffffffffffffffffffffffffffffffff1916145b8061190e575061190d82612175565b5b9050919050565b600080611921836121df565b9050600073ffffffffffffffffffffffffffffffffffffffff168173ffffffffffffffffffffffffffffffffffffffff160361199457826040517f7e27328900000000000000000000000000000000000000000000000000000000815260040161198b9190612bb2565b60405180910390fd5b80915050919050565b60006004600083815260200190815260200160002060009054906101000a900473ffffffffffffffffffffffffffffffffffffffff169050919050565b600033905090565b6119ef838383600161221c565b505050565b600080611a00846121df565b9050600073ffffffffffffffffffffffffffffffffffffffff168373ffffffffffffffffffffffffffffffffffffffff1614611a4257611a418184866123e1565b5b600073ffffffffffffffffffffffffffffffffffffffff168173ffffffffffffffffffffffffffffffffffffffff1614611ad357611a8460008560008061221c565b6001600360008373ffffffffffffffffffffffffffffffffffffffff1673ffffffffffffffffffffffffffffffffffffffff168152602001908152602001600020600082825403925050819055505b600073ffffffffffffffffffffffffffffffffffffffff168573ffffffffffffffffffffffffffffffffffffffff1614611b56576001600360008773ffffffffffffffffffffffffffffffffffffffff1673ffffffffffffffffffffffffffffffffffffffff168152602001908152602001600020600082825401925050819055505b846002600086815260200190815260200160002060006101000a81548173ffffffffffffffffffffffffffffffffffffffff021916908373ffffffffffffffffffffffffffffffffffffffff160217905550838573ffffffffffffffffffffffffffffffffffffffff168273ffffffffffffffffffffffffffffffffffffffff167fddf252ad1be2c89b69c2b068fc378daa952ba7f163c4a11628f55a4df523b3ef60405160405180910390a4809150509392505050565b611c166119da565b73ffffffffffffffffffffffffffffffffffffffff16611c34610ea3565b73ffffffffffffffffffffffffffffffffffffffff1614611c9357611c576119da565b6040517f118cdaa7000000000000000000000000000000000000000000000000000000008152600401611c8a9190612ac9565b60405180910390fd5b565b6000600760009054906101000a900473ffffffffffffffffffffffffffffffffffffffff16905081600760006101000a81548173ffffffffffffffffffffffffffffffffffffffff021916908373ffffffffffffffffffffffffffffffffffffffff1602179055508173ffffffffffffffffffffffffffffffffffffffff168173ffffffffffffffffffffffffffffffffffffffff167f8be0079c531659141344cd1fd0a4f28419497f9722a3daafe3b4186f6b6457e060405160405180910390a35050565b611d758282604051806020016040528060008152506124a5565b5050565b80600660008481526020019081526020016000209081611d999190613558565b507ff8e1a15aba9398e019f0b49df1a4fde98ee17ae345cb5f6b5e2c27f5033e8ce782604051611dc99190612bb2565b60405180910390a15050565b600073ffffffffffffffffffffffffffffffffffffffff168273ffffffffffffffffffffffffffffffffffffffff1603611e4657816040517f5b08ba18000000000000000000000000000000000000000000000000000000008152600401611e3d9190612ac9565b60405180910390fd5b80600560008573ffffffffffffffffffffffffffffffffffffffff1673ffffffffffffffffffffffffffffffffffffffff16815260200190815260200160002060008473ffffffffffffffffffffffffffffffffffffffff1673ffffffffffffffffffffffffffffffffffffffff16815260200190815260200160002060006101000a81548160ff0219169083151502179055508173ffffffffffffffffffffffffffffffffffffffff168373ffffffffffffffffffffffffffffffffffffffff167f17307eab39ab6107e8899845ad3d59bd9653f200f220920489ca2b5937696c3183604051611f379190612958565b60405180910390a3505050565b60008373ffffffffffffffffffffffffffffffffffffffff163b11156120ee578273ffffffffffffffffffffffffffffffffffffffff1663150b7a02868685856040518563ffffffff1660e01b8152600401611fa39493929190613774565b6020604051808303816000875af1925050508015611fdf57506040513d601f19601f82011682018060405250810190611fdc91906137d5565b60015b612063573d806000811461200f576040519150601f19603f3d011682016040523d82523d6000602084013e612014565b606091505b50600081510361205b57836040517f64a0ae920000000000000000000000000000000000000000000000000000000081526004016120529190612ac9565b60405180910390fd5b805181602001fd5b63150b7a0260e01b7bffffffffffffffffffffffffffffffffffffffffffffffffffffffff1916817bffffffffffffffffffffffffffffffffffffffffffffffffffffffff1916146120ec57836040517f64a0ae920000000000000000000000000000000000000000000000000000000081526004016120e39190612ac9565b60405180910390fd5b505b5050505050565b606060405180602001604052806000815250905090565b606061211782611915565b5060006121226120f5565b90506000815111612142576040518060200160405280600081525061216d565b8061214c846124c9565b60405160200161215d9291906136fb565b6040516020818303038152906040525b915050919050565b60007f01ffc9a7000000000000000000000000000000000000000000000000000000007bffffffffffffffffffffffffffffffffffffffffffffffffffffffff1916827bffffffffffffffffffffffffffffffffffffffffffffffffffffffff1916149050919050565b60006002600083815260200190815260200160002060009054906101000a900473ffffffffffffffffffffffffffffffffffffffff169050919050565b80806122555750600073ffffffffffffffffffffffffffffffffffffffff168273ffffffffffffffffffffffffffffffffffffffff1614155b1561238957600061226584611915565b9050600073ffffffffffffffffffffffffffffffffffffffff168373ffffffffffffffffffffffffffffffffffffffff16141580156122d057508273ffffffffffffffffffffffffffffffffffffffff168173ffffffffffffffffffffffffffffffffffffffff1614155b80156122e357506122e18184611293565b155b1561232557826040517fa9fbf51f00000000000000000000000000000000000000000000000000000000815260040161231c9190612ac9565b60405180910390fd5b811561238757838573ffffffffffffffffffffffffffffffffffffffff168273ffffffffffffffffffffffffffffffffffffffff167f8c5be1e5ebec7d5bd14f71427d1e84f3dd0314c0f7b2291e5b200ac8c7c3b92560405160405180910390a45b505b836004600085815260200190815260200160002060006101000a81548173ffffffffffffffffffffffffffffffffffffffff021916908373ffffffffffffffffffffffffffffffffffffffff16021790555050505050565b6123ec838383612597565b6124a057600073ffffffffffffffffffffffffffffffffffffffff168373ffffffffffffffffffffffffffffffffffffffff160361246157806040517f7e2732890000000000000000000000000000000000000000000000000000000081526004016124589190612bb2565b60405180910390fd5b81816040517f177e802f000000000000000000000000000000000000000000000000000000008152600401612497929190613802565b60405180910390fd5b505050565b6124af8383612658565b6124c46124ba6119da565b6000858585611f44565b505050565b6060600060016124d884612751565b01905060008167ffffffffffffffff8111156124f7576124f6612bd7565b5b6040519080825280601f01601f1916602001820160405280156125295781602001600182028036833780820191505090505b509050600082602001820190505b60011561258c578080600190039150507f3031323334353637383961626364656600000000000000000000000000000000600a86061a8153600a85816125805761257f61382b565b5b04945060008503612537575b819350505050919050565b60008073ffffffffffffffffffffffffffffffffffffffff168373ffffffffffffffffffffffffffffffffffffffff161415801561264f57508273ffffffffffffffffffffffffffffffffffffffff168473ffffffffffffffffffffffffffffffffffffffff161480612610575061260f8484611293565b5b8061264e57508273ffffffffffffffffffffffffffffffffffffffff166126368361199d565b73ffffffffffffffffffffffffffffffffffffffff16145b5b90509392505050565b600073ffffffffffffffffffffffffffffffffffffffff168273ffffffffffffffffffffffffffffffffffffffff16036126ca5760006040517f64a0ae920000000000000000000000000000000000000000000000000000000081526004016126c19190612ac9565b60405180910390fd5b60006126d8838360006119f4565b9050600073ffffffffffffffffffffffffffffffffffffffff168173ffffffffffffffffffffffffffffffffffffffff161461274c5760006040517f73c6ac6e0000000000000000000000000000000000000000000000000000000081526004016127439190612ac9565b60405180910390fd5b505050565b600080600090507a184f03e93ff9f4daa797ed6e38ed64bf6a1f01000000000000000083106127af577a184f03e93ff9f4daa797ed6e38ed64bf6a1f01000000000000000083816127a5576127a461382b565b5b0492506040810190505b6d04ee2d6d415b85acef810000000083106127ec576d04ee2d6d415b85acef810000000083816127e2576127e161382b565b5b0492506020810190505b662386f26fc10000831061281b57662386f26fc1000083816128115761281061382b565b5b0492506010810190505b6305f5e1008310612844576305f5e100838161283a5761283961382b565b5b0492506008810190505b612710831061286957612710838161285f5761285e61382b565b5b0492506004810190505b6064831061288c57606483816128825761288161382b565b5b0492506002810190505b600a831061289b576001810190505b80915050919050565b6000604051905090565b600080fd5b600080fd5b60007fffffffff0000000000000000000000000000000000000000000000000000000082169050919050565b6128ed816128b8565b81146128f857600080fd5b50565b60008135905061290a816128e4565b92915050565b600060208284031215612926576129256128ae565b5b6000612934848285016128fb565b91505092915050565b60008115159050919050565b6129528161293d565b82525050565b600060208201905061296d6000830184612949565b92915050565b600081519050919050565b600082825260208201905092915050565b60005b838110156129ad578082015181840152602081019050612992565b60008484015250505050565b6000601f19601f8301169050919050565b60006129d582612973565b6129df818561297e565b93506129ef81856020860161298f565b6129f8816129b9565b840191505092915050565b60006020820190508181036000830152612a1d81846129ca565b905092915050565b6000819050919050565b612a3881612a25565b8114612a4357600080fd5b50565b600081359050612a5581612a2f565b92915050565b600060208284031215612a7157612a706128ae565b5b6000612a7f84828501612a46565b91505092915050565b600073ffffffffffffffffffffffffffffffffffffffff82169050919050565b6000612ab382612a88565b9050919050565b612ac381612aa8565b82525050565b6000602082019050612ade6000830184612aba565b92915050565b612aed81612aa8565b8114612af857600080fd5b50565b600081359050612b0a81612ae4565b92915050565b60008060408385031215612b2757612b266128ae565b5b6000612b3585828601612afb565b9250506020612b4685828601612a46565b9150509250929050565b600080600060608486031215612b6957612b686128ae565b5b6000612b7786828701612afb565b9350506020612b8886828701612afb565b9250506040612b9986828701612a46565b9150509250925092565b612bac81612a25565b82525050565b6000602082019050612bc76000830184612ba3565b92915050565b600080fd5b600080fd5b7f4e487b7100000000000000000000000000000000000000000000000000000000600052604160045260246000fd5b612c0f826129b9565b810181811067ffffffffffffffff82111715612c2e57612c2d612bd7565b5b80604052505050565b6000612c416128a4565b9050612c4d8282612c06565b919050565b600067ffffffffffffffff821115612c6d57612c6c612bd7565b5b612c76826129b9565b9050602081019050919050565b82818337600083830152505050565b6000612ca5612ca084612c52565b612c37565b905082815260208101848484011115612cc157612cc0612bd2565b5b612ccc848285612c83565b509392505050565b600082601f830112612ce957612ce8612bcd565b5b8135612cf9848260208601612c92565b91505092915050565b60008060008060008060c08789031215612d1f57612d1e6128ae565b5b600087013567ffffffffffffffff811115612d3d57612d3c6128b3565b5b612d4989828a01612cd4565b965050602087013567ffffffffffffffff811115612d6a57612d696128b3565b5b612d7689828a01612cd4565b955050604087013567ffffffffffffffff811115612d9757612d966128b3565b5b612da389828a01612cd4565b945050606087013567ffffffffffffffff811115612dc457612dc36128b3565b5b612dd089828a01612cd4565b935050608087013567ffffffffffffffff811115612df157612df06128b3565b5b612dfd89828a01612cd4565b92505060a087013567ffffffffffffffff811115612e1e57612e1d6128b3565b5b612e2a89828a01612cd4565b9150509295509295509295565b600060208284031215612e4d57612e4c6128ae565b5b6000612e5b84828501612afb565b91505092915050565b7f4e487b7100000000000000000000000000000000000000000000000000000000600052602160045260246000fd5b60038110612ea457612ea3612e64565b5b50565b6000819050612eb582612e93565b919050565b6000612ec582612ea7565b9050919050565b612ed581612eba565b82525050565b600061012082019050612ef1600083018c612aba565b8181036020830152612f03818b6129ca565b90508181036040830152612f17818a6129ca565b90508181036060830152612f2b81896129ca565b90508181036080830152612f3f81886129ca565b905081810360a0830152612f5381876129ca565b905081810360c0830152612f6781866129ca565b9050612f7660e0830185612ecc565b612f84610100830184612ba3565b9a9950505050505050505050565b60008060408385031215612fa957612fa86128ae565b5b6000612fb785828601612a46565b925050602083013567ffffffffffffffff811115612fd857612fd76128b3565b5b612fe485828601612cd4565b9150509250929050565b612ff78161293d565b811461300257600080fd5b50565b60008135905061301481612fee565b92915050565b60008060408385031215613031576130306128ae565b5b600061303f85828601612afb565b925050602061305085828601613005565b9150509250929050565b600081519050919050565b600082825260208201905092915050565b6000819050602082019050919050565b61308f81612a25565b82525050565b60006130a18383613086565b60208301905092915050565b6000602082019050919050565b60006130c58261305a565b6130cf8185613065565b93506130da83613076565b8060005b8381101561310b5781516130f28882613095565b97506130fd836130ad565b9250506001810190506130de565b5085935050505092915050565b6000602082019050818103600083015261313281846130ba565b905092915050565b600067ffffffffffffffff82111561315557613154612bd7565b5b61315e826129b9565b9050602081019050919050565b600061317e6131798461313a565b612c37565b90508281526020810184848401111561319a57613199612bd2565b5b6131a5848285612c83565b509392505050565b600082601f8301126131c2576131c1612bcd565b5b81356131d284826020860161316b565b91505092915050565b600080600080608085870312156131f5576131f46128ae565b5b600061320387828801612afb565b945050602061321487828801612afb565b935050604061322587828801612a46565b925050606085013567ffffffffffffffff811115613246576132456128b3565b5b613252878288016131ad565b91505092959194509250565b60008060408385031215613275576132746128ae565b5b600061328385828601612afb565b925050602061329485828601612afb565b9150509250929050565b7f4e487b7100000000000000000000000000000000000000000000000000000000600052602260045260246000fd5b600060028204905060018216806132e557607f821691505b6020821081036132f8576132f761329e565b5b50919050565b60006060820190506133136000830186612aba565b6133206020830185612ba3565b61332d6040830184612aba565b949350505050565b7f4e487b7100000000000000000000000000000000000000000000000000000000600052601160045260246000fd5b600061336f82612a25565b91507fffffffffffffffffffffffffffffffffffffffffffffffffffffffffffffffff82036133a1576133a0613335565b5b600182019050919050565b60008190508160005260206000209050919050565b60006020601f8301049050919050565b600082821b905092915050565b60006008830261340e7fffffffffffffffffffffffffffffffffffffffffffffffffffffffffffffffff826133d1565b61341886836133d1565b95508019841693508086168417925050509392505050565b6000819050919050565b600061345561345061344b84612a25565b613430565b612a25565b9050919050565b6000819050919050565b61346f8361343a565b61348361347b8261345c565b8484546133de565b825550505050565b600090565b61349861348b565b6134a3818484613466565b505050565b5b818110156134c7576134bc600082613490565b6001810190506134a9565b5050565b601f82111561350c576134dd816133ac565b6134e6846133c1565b810160208510156134f5578190505b613509613501856133c1565b8301826134a8565b50505b505050565b600082821c905092915050565b600061352f60001984600802613511565b1980831691505092915050565b6000613548838361351e565b9150826002028217905092915050565b61356182612973565b67ffffffffffffffff81111561357a57613579612bd7565b5b61358482546132cd565b61358f8282856134cb565b600060209050601f8311600181146135c257600084156135b0578287015190505b6135ba858261353c565b865550613622565b601f1984166135d0866133ac565b60005b828110156135f8578489015182556001820191506020850194506020810190506135d3565b868310156136155784890151613611601f89168261351e565b8355505b6001600288020188555050505b505050505050565b7f416c72656164792070726f636573736564000000000000000000000000000000600082015250565b600061366060118361297e565b915061366b8261362a565b602082019050919050565b6000602082019050818103600083015261368f81613653565b9050919050565b60006040820190506136ab6000830185612ba3565b6136b86020830184612ba3565b9392505050565b600081905092915050565b60006136d582612973565b6136df81856136bf565b93506136ef81856020860161298f565b80840191505092915050565b600061370782856136ca565b915061371382846136ca565b91508190509392505050565b600081519050919050565b600082825260208201905092915050565b60006137468261371f565b613750818561372a565b935061376081856020860161298f565b613769816129b9565b840191505092915050565b60006080820190506137896000830187612aba565b6137966020830186612aba565b6137a36040830185612ba3565b81810360608301526137b5818461373b565b905095945050505050565b6000815190506137cf816128e4565b92915050565b6000602082840312156137eb576137ea6128ae565b5b60006137f9848285016137c0565b91505092915050565b60006040820190506138176000830185612aba565b6138246020830184612ba3565b9392505050565b7f4e487b7100000000000000000000000000000000000000000000000000000000600052601260045260246000fdfea264697066735822122030512bdce3187d5feeb1fa5a7b9f798e7951fd6502f80dbf2dc8e07061b0d0d664736f6c63430008140033",
  "linkReferences": {},
  "deployedLinkReferences": {}
}